{"abi":[{"type":"constructor","inputs":[{"name":"_worldId","type":"address","internalType":"contract IWorldID"}],"stateMutability":"nonpayable"},{"type":"function","name":"addWorldIDPoH","inputs":[{"name":"userAddress","type":"address","internalType":"address"},{"name":"root","type":"uint256","internalType":"uint256"},{"name":"nullifierHash","type":"uint256","internalType":"uint256"},{"name":"proof","type":"uint256[8]","internalType":"uint256[8]"}],"outputs":[],"stateMutability":"nonpayable"},{"type":"function","name":"checkPoH","inputs":[{"name":"userAddress","type":"address","internalType":"address"}],"outputs":[{"name":"","type":"bool","internalType":"bool"}],"stateMutability":"view"},{"type":"function","name":"knownPoH","inputs":[{"name":"","type":"address","internalType":"address"}],"outputs":[{"name":"","type":"uint8","internalType":"enum ProofOfHumanity.ProofOfHumanityEnum"}],"stateMutability":"view"},{"type":"function","name":"worldId","inputs":[],"outputs":[{"name":"","type":"address","internalType":"contract IWorldID"}],"stateMutability":"view"},{"type":"event","name":"addedPoH","inputs":[{"name":"userAddress","type":"address","indexed":true,"internalType":"address"}],"anonymous":false}],"bytecode":{"object":"0x60c06040526001608052348015601457600080fd5b5060405161050d38038061050d8339810160408190526031916041565b6001600160a01b031660a052606f565b600060208284031215605257600080fd5b81516001600160a01b0381168114606857600080fd5b9392505050565b60805160a05161047361009a6000396000818160a40152610191015260006101c101526104736000f3fe608060405234801561001057600080fd5b506004361061004c5760003560e01c806356442bf7146100515780636be972f31461008a578063753e9ef01461009f578063f1004862146100de575b600080fd5b61007461005f366004610327565b60006020819052908152604090205460ff1681565b604051610081919061035f565b60405180910390f35b61009d610098366004610387565b610101565b005b6100c67f000000000000000000000000000000000000000000000000000000000000000081565b6040516001600160a01b039091168152602001610081565b6100f16100ec366004610327565b61029e565b6040519015158152602001610081565b6001600160a01b03841660009081526020819052604081205460ff16600181111561012e5761012e610349565b1461018f5760405162461bcd60e51b815260206004820152602760248201527f557365722070726f6f66206f662068756d616e69747920616c72656164792076604482015266195c9a599a595960ca1b606482015260840160405180910390fd5b7f00000000000000000000000000000000000000000000000000000000000000006001600160a01b0316633bc778e3847f00000000000000000000000000000000000000000000000000000000000000006102208860405160200161020c919060609190911b6bffffffffffffffffffffffff1916815260140190565b6040516020818303038152906040526102d6565b8687876040518763ffffffff1660e01b8152600401610244969594939291906103d6565b60006040518083038186803b15801561025c57600080fd5b505afa158015610270573d6000803e3d6000fd5b505050506001600160a01b03939093166000908152602081905260409020805460ff19166001179055505050565b6000806001600160a01b03831660009081526020819052604090205460ff1660018111156102ce576102ce610349565b141592915050565b60006008826040516020016102eb919061040e565b60408051601f198184030181529190528051602090910120901c92915050565b80356001600160a01b038116811461032257600080fd5b919050565b60006020828403121561033957600080fd5b6103428261030b565b9392505050565b634e487b7160e01b600052602160045260246000fd5b602081016002831061038157634e487b7160e01b600052602160045260246000fd5b91905290565b600080600080610160858703121561039e57600080fd5b6103a78561030b565b9350602085013592506040850135915061016085018610156103c857600080fd5b509194909350909160600190565b60006101a0820190508782528660208301528560408301528460608301528360808301526101008360a0840137979650505050505050565b6000825160005b8181101561042f5760208186018101518583015201610415565b50600092019182525091905056fea26469706673582212208a7abb3db1a541f1cd42f8e7e7f152bbff3ad92048622a4a83c661c085b464d664736f6c634300081a0033","linkReferences":{}},"methodIdentifiers":{"addWorldIDPoH(address,uint256,uint256,uint256[8])":"6be972f3","checkPoH(address)":"f1004862","knownPoH(address)":"56442bf7","worldId()":"753e9ef0"},"id":28}