{"abi":[{"type":"constructor","inputs":[{"name":"_worldId","type":"address","internalType":"contract IWorldID"}],"stateMutability":"nonpayable"},{"type":"function","name":"addWorldIDPoH","inputs":[{"name":"userAddress","type":"address","internalType":"address"},{"name":"root","type":"uint256","internalType":"uint256"},{"name":"nullifierHash","type":"uint256","internalType":"uint256"},{"name":"proof","type":"uint256[8]","internalType":"uint256[8]"}],"outputs":[],"stateMutability":"nonpayable"},{"type":"function","name":"checkPoH","inputs":[{"name":"userAddress","type":"address","internalType":"address"}],"outputs":[{"name":"","type":"bool","internalType":"bool"}],"stateMutability":"view"},{"type":"function","name":"knownPoH","inputs":[{"name":"","type":"address","internalType":"address"}],"outputs":[{"name":"","type":"uint8","internalType":"enum ProofOfHumanity.ProofOfHumanityEnum"}],"stateMutability":"view"},{"type":"event","name":"addedPoH","inputs":[{"name":"userAddress","type":"address","indexed":true,"internalType":"address"}],"anonymous":false}],"bytecode":{"object":"0x60c06040526001608052348015601457600080fd5b506040516104bd3803806104bd8339810160408190526031916041565b6001600160a01b031660a052606f565b600060208284031215605257600080fd5b81516001600160a01b0381168114606857600080fd5b9392505050565b60805160a05161042961009460003960006101470152600061017701526104296000f3fe608060405234801561001057600080fd5b50600436106100415760003560e01c806356442bf7146100465780636be972f31461007f578063f100486214610094575b600080fd5b6100696100543660046102dd565b60006020819052908152604090205460ff1681565b6040516100769190610315565b60405180910390f35b61009261008d36600461033d565b6100b7565b005b6100a76100a23660046102dd565b610254565b6040519015158152602001610076565b6001600160a01b03841660009081526020819052604081205460ff1660018111156100e4576100e46102ff565b146101455760405162461bcd60e51b815260206004820152602760248201527f557365722070726f6f66206f662068756d616e69747920616c72656164792076604482015266195c9a599a595960ca1b606482015260840160405180910390fd5b7f00000000000000000000000000000000000000000000000000000000000000006001600160a01b0316633bc778e3847f00000000000000000000000000000000000000000000000000000000000000006101d6886040516020016101c2919060609190911b6bffffffffffffffffffffffff1916815260140190565b60405160208183030381529060405261028c565b8687876040518763ffffffff1660e01b81526004016101fa9695949392919061038c565b60006040518083038186803b15801561021257600080fd5b505afa158015610226573d6000803e3d6000fd5b505050506001600160a01b03939093166000908152602081905260409020805460ff19166001179055505050565b6000806001600160a01b03831660009081526020819052604090205460ff166001811115610284576102846102ff565b141592915050565b60006008826040516020016102a191906103c4565b60408051601f198184030181529190528051602090910120901c92915050565b80356001600160a01b03811681146102d857600080fd5b919050565b6000602082840312156102ef57600080fd5b6102f8826102c1565b9392505050565b634e487b7160e01b600052602160045260246000fd5b602081016002831061033757634e487b7160e01b600052602160045260246000fd5b91905290565b600080600080610160858703121561035457600080fd5b61035d856102c1565b93506020850135925060408501359150610160850186101561037e57600080fd5b509194909350909160600190565b60006101a0820190508782528660208301528560408301528460608301528360808301526101008360a0840137979650505050505050565b6000825160005b818110156103e557602081860181015185830152016103cb565b50600092019182525091905056fea26469706673582212200106e2588171b7b60cd1821bd0a7a2d7ac48d5eb0f04891c9332a8dd94731d2264736f6c634300081a0033","linkReferences":{}},"methodIdentifiers":{"addWorldIDPoH(address,uint256,uint256,uint256[8])":"6be972f3","checkPoH(address)":"f1004862","knownPoH(address)":"56442bf7"},"id":1}