{"abi":[{"type":"constructor","inputs":[{"name":"_worldId","type":"address","internalType":"contract IWorldID"},{"name":"_appId","type":"string","internalType":"string"},{"name":"_action","type":"string","internalType":"string"}],"stateMutability":"nonpayable"},{"type":"function","name":"addWorldIDPoH","inputs":[{"name":"userAddress","type":"address","internalType":"address"},{"name":"root","type":"uint256","internalType":"uint256"},{"name":"nullifierHash","type":"uint256","internalType":"uint256"},{"name":"proof","type":"uint256[8]","internalType":"uint256[8]"}],"outputs":[],"stateMutability":"nonpayable"},{"type":"function","name":"checkPoH","inputs":[{"name":"userAddress","type":"address","internalType":"address"}],"outputs":[{"name":"","type":"bool","internalType":"bool"}],"stateMutability":"view"},{"type":"function","name":"knownPoH","inputs":[{"name":"","type":"address","internalType":"address"}],"outputs":[{"name":"","type":"uint8","internalType":"enum ProofOfHumanity.ProofOfHumanityEnum"}],"stateMutability":"view"},{"type":"function","name":"worldId","inputs":[],"outputs":[{"name":"","type":"address","internalType":"contract IWorldID"}],"stateMutability":"view"},{"type":"event","name":"addedPoH","inputs":[{"name":"userAddress","type":"address","indexed":true,"internalType":"address"}],"anonymous":false}],"bytecode":{"object":"0x60e0604052600160805234801561001557600080fd5b5060405161071738038061071783398101604081905261003491610185565b6001600160a01b03831660c0526040516100819061006f9061005a90859060200161020d565b60408051601f1981840301815291905261008d565b8260405160200161005a929190610229565b60a0525061024f915050565b60006008826040516020016100a2919061020d565b60408051601f198184030181529190528051602090910120901c92915050565b634e487b7160e01b600052604160045260246000fd5b60005b838110156100f35781810151838201526020016100db565b50506000910152565b600082601f83011261010d57600080fd5b81516001600160401b03811115610126576101266100c2565b604051601f8201601f19908116603f011681016001600160401b0381118282101715610154576101546100c2565b60405281815283820160200185101561016c57600080fd5b61017d8260208301602087016100d8565b949350505050565b60008060006060848603121561019a57600080fd5b83516001600160a01b03811681146101b157600080fd5b60208501519093506001600160401b038111156101cd57600080fd5b6101d9868287016100fc565b604086015190935090506001600160401b038111156101f757600080fd5b610203868287016100fc565b9150509250925092565b6000825161021f8184602087016100d8565b9190910192915050565b828152600082516102418160208501602087016100d8565b919091016020019392505050565b60805160a05160c0516104936102846000396000818160a4015261019101526000610223015260006101c101526104936000f3fe608060405234801561001057600080fd5b506004361061004c5760003560e01c806356442bf7146100515780636be972f31461008a578063753e9ef01461009f578063f1004862146100de575b600080fd5b61007461005f366004610347565b60006020819052908152604090205460ff1681565b604051610081919061037f565b60405180910390f35b61009d6100983660046103a7565b610101565b005b6100c67f000000000000000000000000000000000000000000000000000000000000000081565b6040516001600160a01b039091168152602001610081565b6100f16100ec366004610347565b6102be565b6040519015158152602001610081565b6001600160a01b03841660009081526020819052604081205460ff16600181111561012e5761012e610369565b1461018f5760405162461bcd60e51b815260206004820152602760248201527f557365722070726f6f66206f662068756d616e69747920616c72656164792076604482015266195c9a599a595960ca1b606482015260840160405180910390fd5b7f00000000000000000000000000000000000000000000000000000000000000006001600160a01b0316633bc778e3847f00000000000000000000000000000000000000000000000000000000000000006102208860405160200161020c919060609190911b6bffffffffffffffffffffffff1916815260140190565b6040516020818303038152906040526102f6565b867f0000000000000000000000000000000000000000000000000000000000000000876040518763ffffffff1660e01b8152600401610264969594939291906103f6565b60006040518083038186803b15801561027c57600080fd5b505afa158015610290573d6000803e3d6000fd5b505050506001600160a01b03939093166000908152602081905260409020805460ff19166001179055505050565b6000806001600160a01b03831660009081526020819052604090205460ff1660018111156102ee576102ee610369565b141592915050565b600060088260405160200161030b919061042e565b60408051601f198184030181529190528051602090910120901c92915050565b80356001600160a01b038116811461034257600080fd5b919050565b60006020828403121561035957600080fd5b6103628261032b565b9392505050565b634e487b7160e01b600052602160045260246000fd5b60208101600283106103a157634e487b7160e01b600052602160045260246000fd5b91905290565b60008060008061016085870312156103be57600080fd5b6103c78561032b565b9350602085013592506040850135915061016085018610156103e857600080fd5b509194909350909160600190565b60006101a0820190508782528660208301528560408301528460608301528360808301526101008360a0840137979650505050505050565b6000825160005b8181101561044f5760208186018101518583015201610435565b50600092019182525091905056fea264697066735822122090506217c6d5ba382bec74d32d9b941eb12ac79477c969ec38d0b4c7197fa46964736f6c634300081a0033","linkReferences":{}},"methodIdentifiers":{"addWorldIDPoH(address,uint256,uint256,uint256[8])":"6be972f3","checkPoH(address)":"f1004862","knownPoH(address)":"56442bf7","worldId()":"753e9ef0"},"id":0}