{"abi":[{"type":"constructor","inputs":[{"name":"_campaignExpirationTimestamp","type":"uint256","internalType":"uint256"},{"name":"_campaignCreator","type":"address","internalType":"address"},{"name":"_category","type":"uint256","internalType":"uint256"},{"name":"_maxSubmissions","type":"uint256","internalType":"uint256"},{"name":"_reward","type":"uint256","internalType":"uint256"},{"name":"_rewardToken","type":"address","internalType":"contract IERC20"},{"name":"topLeft","type":"tuple","internalType":"struct StashCampaign.Coordinate","components":[{"name":"lat","type":"uint256","internalType":"uint256"},{"name":"long","type":"uint256","internalType":"uint256"}]},{"name":"bottomRight","type":"tuple","internalType":"struct StashCampaign.Coordinate","components":[{"name":"lat","type":"uint256","internalType":"uint256"},{"name":"long","type":"uint256","internalType":"uint256"}]},{"name":"_descriptionHash","type":"bytes32","internalType":"bytes32"},{"name":"_proofOfHumanity","type":"address","internalType":"contract ProofOfHumanity"},{"name":"_disputDepositAmount","type":"uint256","internalType":"uint256"}],"stateMutability":"nonpayable"},{"type":"function","name":"campaignArea","inputs":[{"name":"","type":"uint256","internalType":"uint256"}],"outputs":[{"name":"lat","type":"uint256","internalType":"uint256"},{"name":"long","type":"uint256","internalType":"uint256"}],"stateMutability":"view"},{"type":"function","name":"campaignCreator","inputs":[],"outputs":[{"name":"","type":"address","internalType":"address"}],"stateMutability":"view"},{"type":"function","name":"campaignExpirationTimestamp","inputs":[],"outputs":[{"name":"","type":"uint256","internalType":"uint256"}],"stateMutability":"view"},{"type":"function","name":"category","inputs":[],"outputs":[{"name":"","type":"uint256","internalType":"uint256"}],"stateMutability":"view"},{"type":"function","name":"createDummySubmission","inputs":[{"name":"dummySubmitter","type":"address","internalType":"address"}],"outputs":[],"stateMutability":"nonpayable"},{"type":"function","name":"createSubmission","inputs":[{"name":"_photoHash","type":"bytes32","internalType":"bytes32"},{"name":"_descriptionHash","type":"bytes32","internalType":"bytes32"},{"name":"_location","type":"tuple","internalType":"struct StashCampaign.Coordinate","components":[{"name":"lat","type":"uint256","internalType":"uint256"},{"name":"long","type":"uint256","internalType":"uint256"}]}],"outputs":[],"stateMutability":"nonpayable"},{"type":"function","name":"descriptionHash","inputs":[],"outputs":[{"name":"","type":"bytes32","internalType":"bytes32"}],"stateMutability":"view"},{"type":"function","name":"disputDepositAmount","inputs":[],"outputs":[{"name":"","type":"uint256","internalType":"uint256"}],"stateMutability":"view"},{"type":"function","name":"dispute","inputs":[{"name":"submissionId","type":"address","internalType":"address"},{"name":"disputorNotesHash","type":"bytes32","internalType":"bytes32"}],"outputs":[],"stateMutability":"nonpayable"},{"type":"function","name":"maxSubmissions","inputs":[],"outputs":[{"name":"","type":"uint256","internalType":"uint256"}],"stateMutability":"view"},{"type":"function","name":"proofOfHumanity","inputs":[],"outputs":[{"name":"","type":"address","internalType":"contract ProofOfHumanity"}],"stateMutability":"view"},{"type":"function","name":"recoupCampaignTokens","inputs":[],"outputs":[],"stateMutability":"nonpayable"},{"type":"function","name":"reward","inputs":[],"outputs":[{"name":"","type":"uint256","internalType":"uint256"}],"stateMutability":"view"},{"type":"function","name":"rewardToken","inputs":[],"outputs":[{"name":"","type":"address","internalType":"contract IERC20"}],"stateMutability":"view"},{"type":"function","name":"submissionIds","inputs":[{"name":"","type":"uint256","internalType":"uint256"}],"outputs":[{"name":"","type":"address","internalType":"address"}],"stateMutability":"view"},{"type":"function","name":"submissions","inputs":[{"name":"","type":"address","internalType":"address"}],"outputs":[{"name":"photoHash","type":"bytes32","internalType":"bytes32"},{"name":"descriptionHash","type":"bytes32","internalType":"bytes32"},{"name":"minResolveTimestamp","type":"uint256","internalType":"uint256"},{"name":"lockedReward","type":"uint256","internalType":"uint256"},{"name":"location","type":"tuple","internalType":"struct StashCampaign.Coordinate","components":[{"name":"lat","type":"uint256","internalType":"uint256"},{"name":"long","type":"uint256","internalType":"uint256"}]},{"name":"status","type":"uint8","internalType":"enum StashCampaign.SubmissionStatus"}],"stateMutability":"view"},{"type":"event","name":"Disputed","inputs":[{"name":"submissionID","type":"address","indexed":true,"internalType":"address"},{"name":"Disputor","type":"address","indexed":true,"internalType":"address"}],"anonymous":false},{"type":"event","name":"Resolved","inputs":[{"name":"submissionID","type":"address","indexed":true,"internalType":"address"}],"anonymous":false},{"type":"event","name":"SubmissionCreated","inputs":[{"name":"submitter","type":"address","indexed":true,"internalType":"address"}],"anonymous":false},{"type":"event","name":"SubmissionFinalized","inputs":[{"name":"submissionID","type":"address","indexed":true,"internalType":"address"},{"name":"status","type":"uint8","indexed":false,"internalType":"enum StashCampaign.SubmissionStatus"},{"name":"minResolveTimestamp","type":"uint256","indexed":false,"internalType":"uint256"}],"anonymous":false},{"type":"event","name":"VoteRequested","inputs":[{"name":"submissionID","type":"address","indexed":true,"internalType":"address"},{"name":"verifier","type":"address","indexed":true,"internalType":"address"}],"anonymous":false},{"type":"event","name":"Voted","inputs":[{"name":"submissionID","type":"address","indexed":true,"internalType":"address"},{"name":"verifier","type":"address","indexed":true,"internalType":"address"}],"anonymous":false}],"bytecode":{"object":"0x6102006040526078608052600360a052603c60c05234801561002057600080fd5b5060405161185038038061185083398101604081905261003f9161010e565b60e09a909a526001600160a01b0398891661010052610120979097526101409590955261016093909352908516610180528051600055602090810151600155815160025501516003556101c052166101e0526101a0526101d7565b6001600160a01b03811681146100af57600080fd5b50565b6000604082840312156100c457600080fd5b604080519081016001600160401b03811182821017156100f457634e487b7160e01b600052604160045260246000fd5b604052825181526020928301519281019290925250919050565b60008060008060008060008060008060006101a08c8e03121561013057600080fd5b8b5160208d0151909b506101438161009a565b809a5050600060408d0151905080995050600060608d0151905080985050600060808d015190508097505060a08c015161017c8161009a565b955061018b8d60c08e016100b2565b945061019b8d6101008e016100b2565b6101408d01516101608e015191955093506101b58161009a565b8092505060006101808d01519050809150509295989b509295989b9093969950565b60805160a05160c05160e05161010051610120516101405161016051610180516101a0516101c0516101e0516115976102b9600039600081816102f901526104d2015260006101da0152600081816102d201526105d4015260008181610347015281816105fa0152610ab80152600081816101590152610e9e01526000818161011f015281816108ea0152610ccf01526000610320015260008181610193015281816108240152610ae90152600081816102ab0152610a19015260005050600081816107b00152610e1d01526000818161095b0152610e5e01526115976000f3fe608060405234801561001057600080fd5b50600436106101005760003560e01c806389e14e1611610097578063d960586711610066578063d9605867146102f4578063ef430aa61461031b578063f7c618c114610342578063fe2932dd1461036957600080fd5b806389e14e16146102245780639026fa7b14610293578063ad8805fd146102a6578063d69083e0146102cd57600080fd5b806376daefd0116100d357806376daefd01461018e5780637b932c6c146101cd57806385dcee93146101d557806386dd9193146101fc57600080fd5b8063033c900814610105578063158dec251461011a578063228cb73314610154578063500d56e11461017b575b600080fd5b6101186101133660046112a7565b61037c565b005b6101417f000000000000000000000000000000000000000000000000000000000000000081565b6040519081526020015b60405180910390f35b6101417f000000000000000000000000000000000000000000000000000000000000000081565b6101186101893660046112d1565b610819565b6101b57f000000000000000000000000000000000000000000000000000000000000000081565b6040516001600160a01b03909116815260200161014b565b610118610a17565b6101417f000000000000000000000000000000000000000000000000000000000000000081565b61020f61020a3660046112f3565b610bc7565b6040805192835260208301919091520161014b565b6102816102323660046112d1565b6005602081815260009283526040928390208054600182015460028301546003840154875180890190985260048501548852958401549487019490945260069092015490949193919060ff1686565b60405161014b96959493929190611322565b6101186102a1366004611395565b610be9565b6101417f000000000000000000000000000000000000000000000000000000000000000081565b6101417f000000000000000000000000000000000000000000000000000000000000000081565b6101b57f000000000000000000000000000000000000000000000000000000000000000081565b6101417f000000000000000000000000000000000000000000000000000000000000000081565b6101b57f000000000000000000000000000000000000000000000000000000000000000081565b6101b56103773660046112f3565b610f54565b6001600160a01b03821660009081526005602052604081206002015490036103eb5760405162461bcd60e51b815260206004820152601960248201527f5375626d697373696f6e20646f6573206e6f742065786973740000000000000060448201526064015b60405180910390fd5b60016001600160a01b03831660009081526005602052604090206006015460ff16600381111561041d5761041d61130c565b1480610458575060026001600160a01b03831660009081526005602052604090206006015460ff1660038111156104565761045661130c565b145b6104b35760405162461bcd60e51b815260206004820152602660248201527f43616e2064697370757465206f6e6c792066696e616c697a6564207375626d696044820152657373696f6e7360d01b60648201526084016103e2565b604051637880243160e11b81526001600160a01b0383811660048301527f0000000000000000000000000000000000000000000000000000000000000000169063f100486290602401602060405180830381865afa158015610519573d6000803e3d6000fd5b505050506040513d601f19601f8201168201806040525081019061053d9190611417565b158061055157506001600160a01b03821633145b6105b95760405162461bcd60e51b815260206004820152603360248201527f43616e206e6f74206469737075746520757365727320776974682070726f7665604482015272642070726f6f66206f662068756d616e69747960681b60648201526084016103e2565b6040516323b872dd60e01b81523360048201523060248201527f000000000000000000000000000000000000000000000000000000000000000060448201527f00000000000000000000000000000000000000000000000000000000000000006001600160a01b0316906323b872dd906064016020604051808303816000875af115801561064b573d6000803e3d6000fd5b505050506040513d601f19601f8201168201806040525081019061066f9190611417565b5080156106a5576001600160a01b0382166000908152600560209081526040822060090180546001810182559083529120018190555b600060016001600160a01b03841660009081526005602052604090206006015460ff1660038111156106d9576106d961130c565b146106e55760026106e8565b60035b905060056000846001600160a01b03166001600160a01b031681526020019081526020016000206008016040518060400160405280336001600160a01b0316815260200183600381111561073e5761073e61130c565b9052815460018101835560009283526020928390208251910180546001600160a01b031981166001600160a01b03909316928317825593830151929390929183916001600160a81b03191617600160a01b8360038111156107a1576107a161130c565b021790555050506107de8360017f00000000000000000000000000000000000000000000000000000000000000006107d9919061144f565b610f7e565b60405133906001600160a01b038516907f952b7e5c2c7ec2cea391782e13a57e522a8e19c5b71cfa7d3c25319ae49cfa3490600090a3505050565b336001600160a01b037f000000000000000000000000000000000000000000000000000000000000000016146108ac5760405162461bcd60e51b815260206004820152603260248201527f4f6e6c792063616d706169676e2063726561746f722063616e206372656174656044820152712064756d6d79207375626d697373696f6e7360701b60648201526084016103e2565b6001600160a01b038116600090815260056020526040902060020154156108e55760405162461bcd60e51b81526004016103e29061146e565b6004547f0000000000000000000000000000000000000000000000000000000000000000116109565760405162461bcd60e51b815260206004820181905260248201527f5265616368656420746865206c696d6974206f66207375626d697373696f6e7360448201526064016103e2565b6109807f0000000000000000000000000000000000000000000000000000000000000000426114ba565b6001600160a01b03821660008181526005602052604080822060028101949094556006909301805460ff19169055600480546001810182559082527f8a35acfbc15ff81a39ae7d344fd709f28e8600b4aa8c65c6b64bfe7fe36bd19b0180546001600160a01b03191683179055915190917f7810d39a57351fd6c467ef50a5fd9c9f2cb50907503b003ccae50bc376eceb5c91a250565b7f00000000000000000000000000000000000000000000000000000000000000004211610aa35760405162461bcd60e51b815260206004820152603460248201527f43616d706169676e20686173206e6f7420657870697265642c20746f6b656e736044820152730818d85b881b9bdd081899481c9958dbdd5c195960621b60648201526084016103e2565b6040516370a0823160e01b81523060048201527f00000000000000000000000000000000000000000000000000000000000000006001600160a01b03169063a9059cbb907f00000000000000000000000000000000000000000000000000000000000000009083906370a0823190602401602060405180830381865afa158015610b31573d6000803e3d6000fd5b505050506040513d601f19601f82011682018060405250810190610b5591906114cd565b6040516001600160e01b031960e085901b1681526001600160a01b03909216600483015260248201526044016020604051808303816000875af1158015610ba0573d6000803e3d6000fd5b505050506040513d601f19601f82011682018060405250810190610bc49190611417565b50565b60008160028110610bd757600080fd5b60020201805460019091015490915082565b600254815110801590610bff5750600054815111155b610c565760405162461bcd60e51b815260206004820152602260248201527f4c6f636174696f6e206f757473696465206f6620617265613a206c6174697475604482015261646560f01b60648201526084016103e2565b600154602082015110801590610c725750600354602082015111155b610cca5760405162461bcd60e51b815260206004820152602360248201527f4c6f636174696f6e206f757473696465206f6620617265613a206c6f6e67697460448201526275646560e81b60648201526084016103e2565b6004547f000000000000000000000000000000000000000000000000000000000000000011610d3b5760405162461bcd60e51b815260206004820181905260248201527f5265616368656420746865206c696d6974206f66207375626d697373696f6e7360448201526064016103e2565b3360009081526005602052604090206002015415610d6b5760405162461bcd60e51b81526004016103e29061146e565b6000839003610dbc5760405162461bcd60e51b815260206004820152601b60248201527f50686f746f20686173682063616e206e6f7420626520656d707479000000000060448201526064016103e2565b6000829003610e175760405162461bcd60e51b815260206004820152602160248201527f4465736372697074696f6e20686173682063616e206e6f7420626520656d70746044820152607960f81b60648201526084016103e2565b610e41337f0000000000000000000000000000000000000000000000000000000000000000610f7e565b336000908152600560205260409020838155600101829055610e837f0000000000000000000000000000000000000000000000000000000000000000426114ba565b336000908152600560208181526040832060028101949094557f0000000000000000000000000000000000000000000000000000000000000000600385015584516004850155840151908301556006909101805460ff191660018302179055506004805460018101825560009182527f8a35acfbc15ff81a39ae7d344fd709f28e8600b4aa8c65c6b64bfe7fe36bd19b0180546001600160a01b0319163390811790915560405190917f7810d39a57351fd6c467ef50a5fd9c9f2cb50907503b003ccae50bc376eceb5c91a2505050565b60048181548110610f6457600080fd5b6000918252602090912001546001600160a01b0316905081565b60045460ff8216111561101f5760405162461bcd60e51b815260206004820152605a60248201527f4e6f7420656e6f756768206578697374696e67207375626d697373696f6e732060448201527f746f2061737369676e207665726966696572732c20706c65617365206372656160648201527f746520736f6d652064756d6d79207375626d697373696f6e732e000000000000608482015260a4016103e2565b60008160ff1667ffffffffffffffff81111561103d5761103d61137f565b604051908082528060200260200182016040528015611066578160200160208202803683370190505b509050600160005b8360ff168110156111765760048054600091829161108c86436114fc565b61109791904061150f565b815481106110a7576110a76114e6565b6000918252602090912001546001600160a01b031690506110c96001856114ba565b935060005b8381101561111557816001600160a01b03168682815181106110f2576110f26114e6565b60200260200101516001600160a01b03160361110d57600192505b6001016110ce565b5081611153578085848151811061112e5761112e6114e6565b60200260200101906001600160a01b031690816001600160a01b031681525050611161565b8261115d81611531565b9350505b5050808061116e90611548565b91505061106e565b5060005b82518110156112845760006040518060400160405280876001600160a01b03168152602001600015158152509050600560008584815181106111be576111be6114e6565b6020908102919091018101516001600160a01b0390811683528282019390935260409091016000908120600701805460018101825590825290829020845191018054928501511515600160a01b026001600160a81b031990931691909316171790558351849083908110611234576112346114e6565b60200260200101516001600160a01b0316866001600160a01b03167ff697f0b76868f0fc53b68a98b838d026f1dc9f318805a4daa3e27415bfec067360405160405180910390a35060010161117a565b5050505050565b80356001600160a01b03811681146112a257600080fd5b919050565b600080604083850312156112ba57600080fd5b6112c38361128b565b946020939093013593505050565b6000602082840312156112e357600080fd5b6112ec8261128b565b9392505050565b60006020828403121561130557600080fd5b5035919050565b634e487b7160e01b600052602160045260246000fd5b600060e08201905087825286602083015285604083015284606083015283516080830152602084015160a08301526004831061136e57634e487b7160e01b600052602160045260246000fd5b8260c0830152979650505050505050565b634e487b7160e01b600052604160045260246000fd5b600080600083850360808112156113ab57600080fd5b84359350602085013592506040603f19820112156113c857600080fd5b506040516040810181811067ffffffffffffffff821117156113fa57634e487b7160e01b600052604160045260246000fd5b604090815285013581526060909401356020850152509093909250565b60006020828403121561142957600080fd5b815180151581146112ec57600080fd5b634e487b7160e01b600052601160045260246000fd5b60ff828116828216039081111561146857611468611439565b92915050565b6020808252602c908201527f5375626d697373696f6e20616c726561647920637265617465642066726f6d2060408201526b74686973206164647265737360a01b606082015260800190565b8082018082111561146857611468611439565b6000602082840312156114df57600080fd5b5051919050565b634e487b7160e01b600052603260045260246000fd5b8181038181111561146857611468611439565b60008261152c57634e487b7160e01b600052601260045260246000fd5b500690565b60008161154057611540611439565b506000190190565b60006001820161155a5761155a611439565b506001019056fea26469706673582212209dde7296032bc371770c6f2e8aa77d2c29388ece8d90d5f9a01f14eebf94b03564736f6c634300081a0033","linkReferences":{}},"methodIdentifiers":{"campaignArea(uint256)":"86dd9193","campaignCreator()":"76daefd0","campaignExpirationTimestamp()":"ad8805fd","category()":"ef430aa6","createDummySubmission(address)":"500d56e1","createSubmission(bytes32,bytes32,(uint256,uint256))":"9026fa7b","descriptionHash()":"85dcee93","disputDepositAmount()":"d69083e0","dispute(address,bytes32)":"033c9008","maxSubmissions()":"158dec25","proofOfHumanity()":"d9605867","recoupCampaignTokens()":"7b932c6c","reward()":"228cb733","rewardToken()":"f7c618c1","submissionIds(uint256)":"fe2932dd","submissions(address)":"89e14e16"},"id":3}