{"abi":[{"type":"constructor","inputs":[{"name":"_campaignExpirationTimestamp","type":"uint256","internalType":"uint256"},{"name":"_campaignCreator","type":"address","internalType":"address"},{"name":"_category","type":"uint256","internalType":"uint256"},{"name":"_maxSubmissions","type":"uint256","internalType":"uint256"},{"name":"_reward","type":"uint256","internalType":"uint256"},{"name":"_rewardToken","type":"address","internalType":"contract IERC20"},{"name":"topLeft","type":"tuple","internalType":"struct StashCampaign.Coordinate","components":[{"name":"lat","type":"uint256","internalType":"uint256"},{"name":"long","type":"uint256","internalType":"uint256"}]},{"name":"bottomRight","type":"tuple","internalType":"struct StashCampaign.Coordinate","components":[{"name":"lat","type":"uint256","internalType":"uint256"},{"name":"long","type":"uint256","internalType":"uint256"}]},{"name":"_descriptionHash","type":"bytes32","internalType":"bytes32"},{"name":"_proofOfHumanity","type":"address","internalType":"contract ProofOfHumanity"},{"name":"_disputDepositAmount","type":"uint256","internalType":"uint256"}],"stateMutability":"nonpayable"},{"type":"function","name":"campaignArea","inputs":[{"name":"","type":"uint256","internalType":"uint256"}],"outputs":[{"name":"lat","type":"uint256","internalType":"uint256"},{"name":"long","type":"uint256","internalType":"uint256"}],"stateMutability":"view"},{"type":"function","name":"campaignCreator","inputs":[],"outputs":[{"name":"","type":"address","internalType":"address"}],"stateMutability":"view"},{"type":"function","name":"campaignExpirationTimestamp","inputs":[],"outputs":[{"name":"","type":"uint256","internalType":"uint256"}],"stateMutability":"view"},{"type":"function","name":"category","inputs":[],"outputs":[{"name":"","type":"uint256","internalType":"uint256"}],"stateMutability":"view"},{"type":"function","name":"createDummySubmission","inputs":[{"name":"dummySubmitter","type":"address","internalType":"address"}],"outputs":[],"stateMutability":"nonpayable"},{"type":"function","name":"createSubmission","inputs":[{"name":"_photoHash","type":"bytes32","internalType":"bytes32"},{"name":"_descriptionHash","type":"bytes32","internalType":"bytes32"},{"name":"_location","type":"tuple","internalType":"struct StashCampaign.Coordinate","components":[{"name":"lat","type":"uint256","internalType":"uint256"},{"name":"long","type":"uint256","internalType":"uint256"}]}],"outputs":[],"stateMutability":"nonpayable"},{"type":"function","name":"descriptionHash","inputs":[],"outputs":[{"name":"","type":"bytes32","internalType":"bytes32"}],"stateMutability":"view"},{"type":"function","name":"disputDepositAmount","inputs":[],"outputs":[{"name":"","type":"uint256","internalType":"uint256"}],"stateMutability":"view"},{"type":"function","name":"dispute","inputs":[{"name":"submissionId","type":"address","internalType":"address"},{"name":"disputorNotesHash","type":"bytes32","internalType":"bytes32"}],"outputs":[],"stateMutability":"nonpayable"},{"type":"function","name":"maxSubmissions","inputs":[],"outputs":[{"name":"","type":"uint256","internalType":"uint256"}],"stateMutability":"view"},{"type":"function","name":"proofOfHumanity","inputs":[],"outputs":[{"name":"","type":"address","internalType":"contract ProofOfHumanity"}],"stateMutability":"view"},{"type":"function","name":"recoupCampaignTokens","inputs":[],"outputs":[],"stateMutability":"nonpayable"},{"type":"function","name":"resolve","inputs":[{"name":"submissionId","type":"address","internalType":"address"}],"outputs":[],"stateMutability":"nonpayable"},{"type":"function","name":"reward","inputs":[],"outputs":[{"name":"","type":"uint256","internalType":"uint256"}],"stateMutability":"view"},{"type":"function","name":"rewardToken","inputs":[],"outputs":[{"name":"","type":"address","internalType":"contract IERC20"}],"stateMutability":"view"},{"type":"function","name":"submissionIds","inputs":[{"name":"","type":"uint256","internalType":"uint256"}],"outputs":[{"name":"","type":"address","internalType":"address"}],"stateMutability":"view"},{"type":"function","name":"submissions","inputs":[{"name":"","type":"address","internalType":"address"}],"outputs":[{"name":"photoHash","type":"bytes32","internalType":"bytes32"},{"name":"descriptionHash","type":"bytes32","internalType":"bytes32"},{"name":"minResolveTimestamp","type":"uint256","internalType":"uint256"},{"name":"lockedReward","type":"uint256","internalType":"uint256"},{"name":"location","type":"tuple","internalType":"struct StashCampaign.Coordinate","components":[{"name":"lat","type":"uint256","internalType":"uint256"},{"name":"long","type":"uint256","internalType":"uint256"}]},{"name":"status","type":"uint8","internalType":"enum StashCampaign.SubmissionStatus"}],"stateMutability":"view"},{"type":"function","name":"vote","inputs":[{"name":"submissionId","type":"address","internalType":"address"},{"name":"opinion","type":"uint8","internalType":"enum StashCampaign.VoteOpinion"}],"outputs":[],"stateMutability":"nonpayable"},{"type":"event","name":"Disputed","inputs":[{"name":"submissionID","type":"address","indexed":true,"internalType":"address"},{"name":"Disputor","type":"address","indexed":true,"internalType":"address"}],"anonymous":false},{"type":"event","name":"Resolved","inputs":[{"name":"submissionID","type":"address","indexed":true,"internalType":"address"}],"anonymous":false},{"type":"event","name":"SubmissionCreated","inputs":[{"name":"submitter","type":"address","indexed":true,"internalType":"address"}],"anonymous":false},{"type":"event","name":"SubmissionFinalized","inputs":[{"name":"submissionID","type":"address","indexed":true,"internalType":"address"},{"name":"status","type":"uint8","indexed":false,"internalType":"enum StashCampaign.SubmissionStatus"},{"name":"minResolveTimestamp","type":"uint256","indexed":false,"internalType":"uint256"}],"anonymous":false},{"type":"event","name":"VoteRequested","inputs":[{"name":"submissionID","type":"address","indexed":true,"internalType":"address"},{"name":"verifier","type":"address","indexed":true,"internalType":"address"}],"anonymous":false},{"type":"event","name":"Voted","inputs":[{"name":"submissionID","type":"address","indexed":true,"internalType":"address"},{"name":"verifier","type":"address","indexed":true,"internalType":"address"}],"anonymous":false}],"bytecode":{"object":"0x6102006040526078608052600360a052603c60c05260001960005534801561002657600080fd5b50604051612d90380380612d9083398101604081905261004591610114565b60e09a909a526001600160a01b0398891661010052610120979097526101409590955261016093909352908516610180528051600155602090810151600255815160035501516004556101c052166101e0526101a0526101dd565b6001600160a01b03811681146100b557600080fd5b50565b6000604082840312156100ca57600080fd5b604080519081016001600160401b03811182821017156100fa57634e487b7160e01b600052604160045260246000fd5b604052825181526020928301519281019290925250919050565b60008060008060008060008060008060006101a08c8e03121561013657600080fd5b8b5160208d0151909b50610149816100a0565b809a5050600060408d0151905080995050600060608d0151905080985050600060808d015190508097505060a08c0151610182816100a0565b95506101918d60c08e016100b8565b94506101a18d6101008e016100b8565b6101408d01516101608e015191955093506101bb816100a0565b8092505060006101808d01519050809150509295989b509295989b9093969950565b60805160a05160c05160e05161010051610120516101405161016051610180516101a0516101c0516101e051612a6c6103246000396000818161033501526104d70152600061020301526000818161030e015281816105d901528181610e410152818161101c015281816112c2015261149d015260008181610383015281816105ff01528181610ce001528181610ff00152818161111a015281816114710152818161159b015261174401526000818161016f0152611b2b015260008181610135015281816108f0015261195b0152600061035c0152600081816101bc0152818161082a01526117750152600081816102d401526116a5015260006125af0152600081816107b401528181611aa901528181611f99015281816123290152818161236e015281816123bb01526126400152600081816109610152611aea0152612a6c6000f3fe608060405234801561001057600080fd5b50600436106101165760003560e01c806389e14e16116100a2578063d69083e011610071578063d69083e014610309578063d960586714610330578063ef430aa614610357578063f7c618c11461037e578063fe2932dd146103a557600080fd5b806389e14e161461024d5780639026fa7b146102bc578063ad8805fd146102cf578063bceb514d146102f657600080fd5b806355ea6c47116100e957806355ea6c47146101a457806376daefd0146101b75780637b932c6c146101f657806385dcee93146101fe57806386dd91931461022557600080fd5b8063033c90081461011b578063158dec2514610130578063228cb7331461016a578063500d56e114610191575b600080fd5b61012e610129366004612685565b6103b8565b005b6101577f000000000000000000000000000000000000000000000000000000000000000081565b6040519081526020015b60405180910390f35b6101577f000000000000000000000000000000000000000000000000000000000000000081565b61012e61019f3660046126af565b61081f565b61012e6101b23660046126af565b610a1c565b6101de7f000000000000000000000000000000000000000000000000000000000000000081565b6040516001600160a01b039091168152602001610161565b61012e6116a3565b6101577f000000000000000000000000000000000000000000000000000000000000000081565b6102386102333660046126d1565b611853565b60408051928352602083019190915201610161565b6102aa61025b3660046126af565b6006602081815260009283526040928390208054600182015460028301546003840154875180890190985260048501548852600585015495880195909552929094015490949192919060ff1686565b60405161016196959493929190612722565b61012e6102ca36600461277e565b611875565b6101577f000000000000000000000000000000000000000000000000000000000000000081565b61012e610304366004612800565b611bda565b6101577f000000000000000000000000000000000000000000000000000000000000000081565b6101de7f000000000000000000000000000000000000000000000000000000000000000081565b6101577f000000000000000000000000000000000000000000000000000000000000000081565b6101de7f000000000000000000000000000000000000000000000000000000000000000081565b6101de6103b33660046126d1565b611fd6565b6001600160a01b0382166000908152600660205260408120600201548391036103fc5760405162461bcd60e51b81526004016103f39061283b565b60405180910390fd5b8260016001600160a01b0382166000908152600660208190526040909120015460ff166003811115610430576104306126ea565b148061046c575060026001600160a01b0382166000908152600660208190526040909120015460ff16600381111561046a5761046a6126ea565b145b6104b85760405162461bcd60e51b815260206004820152601b60248201527f5375626d697373696f6e206973206e6f742066696e616c697a6564000000000060448201526064016103f3565b604051637880243160e11b81526001600160a01b0385811660048301527f0000000000000000000000000000000000000000000000000000000000000000169063f100486290602401602060405180830381865afa15801561051e573d6000803e3d6000fd5b505050506040513d601f19601f820116820180604052508101906105429190612872565b158061055657506001600160a01b03841633145b6105be5760405162461bcd60e51b815260206004820152603360248201527f43616e206e6f74206469737075746520757365727320776974682070726f7665604482015272642070726f6f66206f662068756d616e69747960681b60648201526084016103f3565b6040516323b872dd60e01b81523360048201523060248201527f000000000000000000000000000000000000000000000000000000000000000060448201527f00000000000000000000000000000000000000000000000000000000000000006001600160a01b0316906323b872dd906064016020604051808303816000875af1158015610650573d6000803e3d6000fd5b505050506040513d601f19601f820116820180604052508101906106749190612872565b5082156106aa576001600160a01b0384166000908152600660209081526040822060090180546001810182559083529120018390555b6001600160a01b03841660009081526006602081905260408220015460019060ff1660038111156106dd576106dd6126ea565b146106e95760026106ec565b60035b905060066000866001600160a01b03166001600160a01b031681526020019081526020016000206008016040518060400160405280336001600160a01b03168152602001836003811115610742576107426126ea565b9052815460018101835560009283526020928390208251910180546001600160a01b031981166001600160a01b03909316928317825593830151929390929183916001600160a81b03191617600160a01b8360038111156107a5576107a56126ea565b021790555050506107e28560017f00000000000000000000000000000000000000000000000000000000000000006107dd91906128aa565b612000565b60405133906001600160a01b038716907f952b7e5c2c7ec2cea391782e13a57e522a8e19c5b71cfa7d3c25319ae49cfa3490600090a35050505050565b336001600160a01b037f000000000000000000000000000000000000000000000000000000000000000016146108b25760405162461bcd60e51b815260206004820152603260248201527f4f6e6c792063616d706169676e2063726561746f722063616e206372656174656044820152712064756d6d79207375626d697373696f6e7360701b60648201526084016103f3565b6001600160a01b038116600090815260066020526040902060020154156108eb5760405162461bcd60e51b81526004016103f3906128c9565b6005547f00000000000000000000000000000000000000000000000000000000000000001161095c5760405162461bcd60e51b815260206004820181905260248201527f5265616368656420746865206c696d6974206f66207375626d697373696f6e7360448201526064016103f3565b6109867f000000000000000000000000000000000000000000000000000000000000000042612915565b6001600160a01b038216600081815260066020819052604080832060028101959095559301805460ff19169055600580546001810182559082527f036b6384b5eca791c62761152d0c79bb0604c104a5fb6f4eb0703f3154bb3db00180546001600160a01b03191683179055915190917f7810d39a57351fd6c467ef50a5fd9c9f2cb50907503b003ccae50bc376eceb5c91a250565b6001600160a01b038116600090815260066020526040812060020154829103610a575760405162461bcd60e51b81526004016103f39061283b565b8160016001600160a01b0382166000908152600660208190526040909120015460ff166003811115610a8b57610a8b6126ea565b1480610ac7575060026001600160a01b0382166000908152600660208190526040909120015460ff166003811115610ac557610ac56126ea565b145b610b135760405162461bcd60e51b815260206004820152601b60248201527f5375626d697373696f6e206973206e6f742066696e616c697a6564000000000060448201526064016103f3565b6001600160a01b038316600090815260066020526040902060020154421015610b8a5760405162461bcd60e51b8152602060048201526024808201527f4d696e207265736f6c76652074696d657374616d70206973206e6f742072656160448201526318da195960e21b60648201526084016103f3565b60005b6001600160a01b038416600090815260066020526040902060070154811015610c6d576001600160a01b0384166000908152600660205260409020600701805482908110610bdd57610bdd612928565b600091825260209091200154600160a01b900460ff16610c655760405162461bcd60e51b815260206004820152603d60248201527f43616e207265736f6c7665207375626d697373696f6e206f6e6c79206166746560448201527f7220616c6c20726571756572656420766f74657320617265206361737400000060648201526084016103f3565b600101610b8d565b5060016001600160a01b0384166000908152600660208190526040909120015460ff166003811115610ca157610ca16126ea565b036111d3576001600160a01b038381166000818152600660205260409081902060030154905163a9059cbb60e01b8152600481019290925260248201527f00000000000000000000000000000000000000000000000000000000000000009091169063a9059cbb906044016020604051808303816000875af1158015610d2b573d6000803e3d6000fd5b505050506040513d601f19601f82011682018060405250810190610d4f9190612872565b506001600160a01b038316600090815260066020526040812060030181905580805b6001600160a01b038616600090815260066020526040902060080154811015610f07576001600160a01b0386166000908152600660205260408120600801805483908110610dc157610dc1612928565b600091825260209182902060408051808201909152910180546001600160a01b03811683529192909190830190600160a01b900460ff166003811115610e0957610e096126ea565b6003811115610e1a57610e1a6126ea565b9052509050600381602001516003811115610e3757610e376126ea565b03610e6d57610e667f000000000000000000000000000000000000000000000000000000000000000085612915565b9350610efe565b600181602001516003811115610e8557610e856126ea565b03610ef05780516001600160a01b0316600090815260066020526040902060030154610eb390600290612954565b81516001600160a01b031660009081526006602052604081206003018054929650600292909190610ee5908490612954565b90915550610efe9050565b82610efa81612968565b9350505b50600101610d71565b506000610f148284612954565b905060005b6001600160a01b0387166000908152600660205260409020600801548110156111ca576001600160a01b0387166000908152600660205260408120600801805483908110610f6957610f69612928565b600091825260209182902060408051808201909152910180546001600160a01b03811683529192909190830190600160a01b900460ff166003811115610fb157610fb16126ea565b6003811115610fc257610fc26126ea565b9052509050600281602001516003811115610fdf57610fdf6126ea565b036110b25780516001600160a01b037f0000000000000000000000000000000000000000000000000000000000000000169063a9059cbb906110417f000000000000000000000000000000000000000000000000000000000000000087612915565b6040516001600160e01b031960e085901b1681526001600160a01b03909216600483015260248201526044016020604051808303816000875af115801561108c573d6000803e3d6000fd5b505050506040513d601f19601f820116820180604052508101906110b09190612872565b505b6000816020015160038111156110ca576110ca6126ea565b036111c15780516001600160a01b0316600090815260066020526040812060030154900361118f57805160405163a9059cbb60e01b81526001600160a01b039182166004820152602481018590527f00000000000000000000000000000000000000000000000000000000000000009091169063a9059cbb906044016020604051808303816000875af1158015611165573d6000803e3d6000fd5b505050506040513d601f19601f820116820180604052508101906111899190612872565b506111c1565b80516001600160a01b0316600090815260066020526040812060030180548592906111bb908490612915565b90915550505b50600101610f19565b50505050611650565b6001600160a01b03831660009081526006602052604081206003015490805b6001600160a01b038616600090815260066020526040902060080154811015611388576001600160a01b038616600090815260066020526040812060080180548390811061124257611242612928565b600091825260209182902060408051808201909152910180546001600160a01b03811683529192909190830190600160a01b900460ff16600381111561128a5761128a6126ea565b600381111561129b5761129b6126ea565b90525090506002816020015160038111156112b8576112b86126ea565b036112ee576112e77f000000000000000000000000000000000000000000000000000000000000000085612915565b935061137f565b600081602001516003811115611306576113066126ea565b036113715780516001600160a01b031660009081526006602052604090206003015461133490600290612954565b81516001600160a01b031660009081526006602052604081206003018054929650600292909190611366908490612954565b9091555061137f9050565b8261137b81612968565b9350505b506001016111f2565b5060006113958284612954565b905060005b6001600160a01b03871660009081526006602052604090206008015481101561164b576001600160a01b03871660009081526006602052604081206008018054839081106113ea576113ea612928565b600091825260209182902060408051808201909152910180546001600160a01b03811683529192909190830190600160a01b900460ff166003811115611432576114326126ea565b6003811115611443576114436126ea565b9052509050600381602001516003811115611460576114606126ea565b036115335780516001600160a01b037f0000000000000000000000000000000000000000000000000000000000000000169063a9059cbb906114c27f000000000000000000000000000000000000000000000000000000000000000087612915565b6040516001600160e01b031960e085901b1681526001600160a01b03909216600483015260248201526044016020604051808303816000875af115801561150d573d6000803e3d6000fd5b505050506040513d601f19601f820116820180604052508101906115319190612872565b505b60018160200151600381111561154b5761154b6126ea565b036116425780516001600160a01b0316600090815260066020526040812060030154900361161057805160405163a9059cbb60e01b81526001600160a01b039182166004820152602481018590527f00000000000000000000000000000000000000000000000000000000000000009091169063a9059cbb906044016020604051808303816000875af11580156115e6573d6000803e3d6000fd5b505050506040513d601f19601f8201168201806040525081019061160a9190612872565b50611642565b80516001600160a01b03166000908152600660205260408120600301805485929061163c908490612915565b90915550505b5060010161139a565b505050505b6001600160a01b0383166000818152600660208190526040808320909101805460ff19166003179055517fd7f9e268a7b73266b018e33a21334c62cd762d663acc0f052eb872992da319db9190a2505050565b7f0000000000000000000000000000000000000000000000000000000000000000421161172f5760405162461bcd60e51b815260206004820152603460248201527f43616d706169676e20686173206e6f7420657870697265642c20746f6b656e736044820152730818d85b881b9bdd081899481c9958dbdd5c195960621b60648201526084016103f3565b6040516370a0823160e01b81523060048201527f00000000000000000000000000000000000000000000000000000000000000006001600160a01b03169063a9059cbb907f00000000000000000000000000000000000000000000000000000000000000009083906370a0823190602401602060405180830381865afa1580156117bd573d6000803e3d6000fd5b505050506040513d601f19601f820116820180604052508101906117e19190612981565b6040516001600160e01b031960e085901b1681526001600160a01b03909216600483015260248201526044016020604051808303816000875af115801561182c573d6000803e3d6000fd5b505050506040513d601f19601f820116820180604052508101906118509190612872565b50565b6001816002811061186357600080fd5b60020201805460019091015490915082565b60035481511080159061188b5750600154815111155b6118e25760405162461bcd60e51b815260206004820152602260248201527f4c6f636174696f6e206f757473696465206f6620617265613a206c6174697475604482015261646560f01b60648201526084016103f3565b6002546020820151108015906118fe5750600454602082015111155b6119565760405162461bcd60e51b815260206004820152602360248201527f4c6f636174696f6e206f757473696465206f6620617265613a206c6f6e67697460448201526275646560e81b60648201526084016103f3565b6005547f0000000000000000000000000000000000000000000000000000000000000000116119c75760405162461bcd60e51b815260206004820181905260248201527f5265616368656420746865206c696d6974206f66207375626d697373696f6e7360448201526064016103f3565b33600090815260066020526040902060020154156119f75760405162461bcd60e51b81526004016103f3906128c9565b6000839003611a485760405162461bcd60e51b815260206004820152601b60248201527f50686f746f20686173682063616e206e6f7420626520656d707479000000000060448201526064016103f3565b6000829003611aa35760405162461bcd60e51b815260206004820152602160248201527f4465736372697074696f6e20686173682063616e206e6f7420626520656d70746044820152607960f81b60648201526084016103f3565b611acd337f0000000000000000000000000000000000000000000000000000000000000000612000565b336000908152600660205260409020838155600101829055611b0f7f000000000000000000000000000000000000000000000000000000000000000042612915565b33600081815260066020818152604080842060028101969096557f00000000000000000000000000000000000000000000000000000000000000006003870155865160048701559086015160058087019190915594909101805460ff1916905583546001810185559382527f036b6384b5eca791c62761152d0c79bb0604c104a5fb6f4eb0703f3154bb3db090930180546001600160a01b03191683179055915190917f7810d39a57351fd6c467ef50a5fd9c9f2cb50907503b003ccae50bc376eceb5c91a2505050565b6001600160a01b038216600090815260066020526040812060020154839103611c155760405162461bcd60e51b81526004016103f39061283b565b336000818152600660205260408120600201549003611c465760405162461bcd60e51b81526004016103f39061283b565b6000836003811115611c5a57611c5a6126ea565b1480611c7757506001836003811115611c7557611c756126ea565b145b611cc35760405162461bcd60e51b815260206004820152601760248201527f43616e20766f7465206f6e6c7920596573206f72204e6f00000000000000000060448201526064016103f3565b60008054905b33600090815260066020526040902060070154811015611d395733600090815260066020526040902060070180546001600160a01b038816919083908110611d1357611d13612928565b6000918252602090912001546001600160a01b031603611d31578091505b600101611cc9565b506000548103611db15760405162461bcd60e51b815260206004820152603960248201527f43616e206f6e6c7920766f7465206f6e207375626d697373696f6e732077686560448201527f72652074686520766f746520776173207265717565737465640000000000000060648201526084016103f3565b336000908152600660205260408120600701805483908110611dd557611dd5612928565b6000918252602090912001805460ff60a01b1916600160a01b83151502179055611e4c5760405162461bcd60e51b815260206004820152602260248201527f43616e206e6f7420766f7465207477696365206f6e2061207375626d6973736960448201526137b760f11b60648201526084016103f3565b33600090815260066020526040902060070180546001919083908110611e7457611e74612928565b600091825260208083209091018054931515600160a01b0260ff60a01b19909416939093179092556001600160a01b0387168152600682526040908190208151808301909252338252600801918101866003811115611ed557611ed56126ea565b9052815460018101835560009283526020928390208251910180546001600160a01b031981166001600160a01b03909316928317825593830151929390929183916001600160a81b03191617600160a01b836003811115611f3857611f386126ea565b0217905550506040513391506001600160a01b038716907fce0c7a2a940807f7dc2ce7a615c2532e915e6c0ac9a08bc4ed9d515a710a53e290600090a36001600160a01b038516600090815260066020526040902060080154611fbf9060ff7f0000000000000000000000000000000000000000000000000000000000000000169061299a565b600003611fcf57611fcf85612306565b5050505050565b60058181548110611fe657600080fd5b6000918252602090912001546001600160a01b0316905081565b60055460ff821611156120a15760405162461bcd60e51b815260206004820152605a60248201527f4e6f7420656e6f756768206578697374696e67207375626d697373696f6e732060448201527f746f2061737369676e207665726966696572732c20706c65617365206372656160648201527f746520736f6d652064756d6d79207375626d697373696f6e732e000000000000608482015260a4016103f3565b60008160ff1667ffffffffffffffff8111156120bf576120bf612768565b6040519080825280602002602001820160405280156120e8578160200160208202803683370190505b509050600160005b8360ff168110156121f85760058054600091829161210e86436129ae565b61211991904061299a565b8154811061212957612129612928565b6000918252602090912001546001600160a01b0316905061214b600185612915565b935060005b8381101561219757816001600160a01b031686828151811061217457612174612928565b60200260200101516001600160a01b03160361218f57600192505b600101612150565b50816121d557808584815181106121b0576121b0612928565b60200260200101906001600160a01b031690816001600160a01b0316815250506121e3565b826121df816129c1565b9350505b505080806121f090612968565b9150506120f0565b5060005b8251811015611fcf5760006040518060400160405280876001600160a01b031681526020016000151581525090506006600085848151811061224057612240612928565b6020908102919091018101516001600160a01b0390811683528282019390935260409091016000908120600701805460018101825590825290829020845191018054928501511515600160a01b026001600160a81b0319909316919093161717905583518490839081106122b6576122b6612928565b60200260200101516001600160a01b0316866001600160a01b03167ff697f0b76868f0fc53b68a98b838d026f1dc9f318805a4daa3e27415bfec067360405160405180910390a3506001016121fc565b6001600160a01b03811660009081526006602052604090206008015461234f60ff7f0000000000000000000000000000000000000000000000000000000000000000168261299a565b1561236c5760405162461bcd60e51b81526004016103f3906129d8565b7f000000000000000000000000000000000000000000000000000000000000000060ff168110156123af5760405162461bcd60e51b81526004016103f3906129d8565b60016000816123e160ff7f000000000000000000000000000000000000000000000000000000000000000016856129ae565b6123eb91906129ae565b90505b6123f96001846129ae565b8110156124de576001600160a01b0384166000908152600660205260409020600290600801612429836001612915565b8154811061243957612439612928565b600091825260209091200154600160a01b900460ff166003811115612460576124606126ea565b61246a919061299a565b6001600160a01b03851660009081526006602052604090206008018054600291908490811061249b5761249b612928565b600091825260209091200154600160a01b900460ff1660038111156124c2576124c26126ea565b6124cc919061299a565b146124d657600091505b6001016123ee565b50801561263a576001600160a01b038316600090815260066020526040902060029060080161250e6001856129ae565b8154811061251e5761251e612928565b600091825260209091200154600160a01b900460ff166003811115612545576125456126ea565b61254f919061299a565b600003612582576001600160a01b038316600090815260066020819052604090912001805460ff191660011790556125aa565b6001600160a01b038316600090815260066020819052604090912001805460ff191660021790555b6125d47f000000000000000000000000000000000000000000000000000000000000000042612915565b6001600160a01b038416600081815260066020819052604091829020600281018590550154905191927f1f2b33b77cf1d0d8cf4eef2099ee1f8193b6c30d1dba95f46b8b797b0ca1de389261262d9260ff169190612a1b565b60405180910390a2505050565b612664837f0000000000000000000000000000000000000000000000000000000000000000612000565b505050565b80356001600160a01b038116811461268057600080fd5b919050565b6000806040838503121561269857600080fd5b6126a183612669565b946020939093013593505050565b6000602082840312156126c157600080fd5b6126ca82612669565b9392505050565b6000602082840312156126e357600080fd5b5035919050565b634e487b7160e01b600052602160045260246000fd5b6004811061271e57634e487b7160e01b600052602160045260246000fd5b9052565b600060e08201905087825286602083015285604083015284606083015283516080830152602084015160a083015261275d60c0830184612700565b979650505050505050565b634e487b7160e01b600052604160045260246000fd5b6000806000838503608081121561279457600080fd5b84359350602085013592506040603f19820112156127b157600080fd5b506040516040810181811067ffffffffffffffff821117156127e357634e487b7160e01b600052604160045260246000fd5b604090815285013581526060909401356020850152509093909250565b6000806040838503121561281357600080fd5b61281c83612669565b915060208301356004811061283057600080fd5b809150509250929050565b60208082526019908201527f5375626d697373696f6e20646f6573206e6f7420657869737400000000000000604082015260600190565b60006020828403121561288457600080fd5b815180151581146126ca57600080fd5b634e487b7160e01b600052601160045260246000fd5b60ff82811682821603908111156128c3576128c3612894565b92915050565b6020808252602c908201527f5375626d697373696f6e20616c726561647920637265617465642066726f6d2060408201526b74686973206164647265737360a01b606082015260800190565b808201808211156128c3576128c3612894565b634e487b7160e01b600052603260045260246000fd5b634e487b7160e01b600052601260045260246000fd5b6000826129635761296361293e565b500490565b60006001820161297a5761297a612894565b5060010190565b60006020828403121561299357600080fd5b5051919050565b6000826129a9576129a961293e565b500690565b818103818111156128c3576128c3612894565b6000816129d0576129d0612894565b506000190190565b60208082526023908201527f566572696669636174696f6e20726f756e64206973206e6f7420636f6d706c656040820152621d195960ea1b606082015260800190565b60408101612a298285612700565b826020830152939250505056fea2646970667358221220afd3edd9120f8db38449d0a1cfe4f4e903c919033fe8258da548109772fd7f8164736f6c634300081a0033","linkReferences":{}},"methodIdentifiers":{"campaignArea(uint256)":"86dd9193","campaignCreator()":"76daefd0","campaignExpirationTimestamp()":"ad8805fd","category()":"ef430aa6","createDummySubmission(address)":"500d56e1","createSubmission(bytes32,bytes32,(uint256,uint256))":"9026fa7b","descriptionHash()":"85dcee93","disputDepositAmount()":"d69083e0","dispute(address,bytes32)":"033c9008","maxSubmissions()":"158dec25","proofOfHumanity()":"d9605867","recoupCampaignTokens()":"7b932c6c","resolve(address)":"55ea6c47","reward()":"228cb733","rewardToken()":"f7c618c1","submissionIds(uint256)":"fe2932dd","submissions(address)":"89e14e16","vote(address,uint8)":"bceb514d"},"id":3}