{"abi":[{"type":"constructor","inputs":[{"name":"_campaignExpirationTimestamp","type":"uint256","internalType":"uint256"},{"name":"_campaignCreator","type":"address","internalType":"address"},{"name":"_category","type":"uint256","internalType":"uint256"},{"name":"_maxSubmissions","type":"uint256","internalType":"uint256"},{"name":"_reward","type":"uint256","internalType":"uint256"},{"name":"_rewardToken","type":"address","internalType":"contract IERC20"},{"name":"topLeft","type":"tuple","internalType":"struct StashCampaign.Coordinate","components":[{"name":"lat","type":"int256","internalType":"int256"},{"name":"long","type":"int256","internalType":"int256"}]},{"name":"bottomRight","type":"tuple","internalType":"struct StashCampaign.Coordinate","components":[{"name":"lat","type":"int256","internalType":"int256"},{"name":"long","type":"int256","internalType":"int256"}]},{"name":"_descriptionHash","type":"bytes32","internalType":"bytes32"},{"name":"_proofOfHumanity","type":"address","internalType":"contract ProofOfHumanity"},{"name":"_campaignManager","type":"address","internalType":"contract CampaignManager"},{"name":"_disputDepositAmount","type":"uint256","internalType":"uint256"}],"stateMutability":"nonpayable"},{"type":"function","name":"DISPUTE_WINDOW","inputs":[],"outputs":[{"name":"","type":"uint256","internalType":"uint256"}],"stateMutability":"view"},{"type":"function","name":"MIN_SUBMISSION_DURATION","inputs":[],"outputs":[{"name":"","type":"uint256","internalType":"uint256"}],"stateMutability":"view"},{"type":"function","name":"VERIFICATION_ROUND_SIZE","inputs":[],"outputs":[{"name":"","type":"uint8","internalType":"uint8"}],"stateMutability":"view"},{"type":"function","name":"campaignArea","inputs":[{"name":"","type":"uint256","internalType":"uint256"}],"outputs":[{"name":"lat","type":"int256","internalType":"int256"},{"name":"long","type":"int256","internalType":"int256"}],"stateMutability":"view"},{"type":"function","name":"campaignCreator","inputs":[],"outputs":[{"name":"","type":"address","internalType":"address"}],"stateMutability":"view"},{"type":"function","name":"campaignExpirationTimestamp","inputs":[],"outputs":[{"name":"","type":"uint256","internalType":"uint256"}],"stateMutability":"view"},{"type":"function","name":"campaignManager","inputs":[],"outputs":[{"name":"","type":"address","internalType":"contract CampaignManager"}],"stateMutability":"view"},{"type":"function","name":"category","inputs":[],"outputs":[{"name":"","type":"uint256","internalType":"uint256"}],"stateMutability":"view"},{"type":"function","name":"createDummySubmission","inputs":[{"name":"dummySubmitter","type":"address","internalType":"address"}],"outputs":[],"stateMutability":"nonpayable"},{"type":"function","name":"createSubmission","inputs":[{"name":"_photoHash","type":"bytes32","internalType":"bytes32"},{"name":"_descriptionHash","type":"bytes32","internalType":"bytes32"},{"name":"_lat","type":"int256","internalType":"int256"},{"name":"_long","type":"int256","internalType":"int256"}],"outputs":[],"stateMutability":"nonpayable"},{"type":"function","name":"descriptionHash","inputs":[],"outputs":[{"name":"","type":"bytes32","internalType":"bytes32"}],"stateMutability":"view"},{"type":"function","name":"disputDepositAmount","inputs":[],"outputs":[{"name":"","type":"uint256","internalType":"uint256"}],"stateMutability":"view"},{"type":"function","name":"dispute","inputs":[{"name":"submissionId","type":"address","internalType":"address"},{"name":"disputorNotesHash","type":"bytes32","internalType":"bytes32"}],"outputs":[],"stateMutability":"nonpayable"},{"type":"function","name":"maxSubmissions","inputs":[],"outputs":[{"name":"","type":"uint256","internalType":"uint256"}],"stateMutability":"view"},{"type":"function","name":"proofOfHumanity","inputs":[],"outputs":[{"name":"","type":"address","internalType":"contract ProofOfHumanity"}],"stateMutability":"view"},{"type":"function","name":"recoupCampaignTokens","inputs":[],"outputs":[],"stateMutability":"nonpayable"},{"type":"function","name":"resolve","inputs":[{"name":"submissionId","type":"address","internalType":"address"}],"outputs":[],"stateMutability":"nonpayable"},{"type":"function","name":"reward","inputs":[],"outputs":[{"name":"","type":"uint256","internalType":"uint256"}],"stateMutability":"view"},{"type":"function","name":"rewardToken","inputs":[],"outputs":[{"name":"","type":"address","internalType":"contract IERC20"}],"stateMutability":"view"},{"type":"function","name":"submissionIds","inputs":[{"name":"","type":"uint256","internalType":"uint256"}],"outputs":[{"name":"","type":"address","internalType":"address"}],"stateMutability":"view"},{"type":"function","name":"submissions","inputs":[{"name":"","type":"address","internalType":"address"}],"outputs":[{"name":"photoHash","type":"bytes32","internalType":"bytes32"},{"name":"descriptionHash","type":"bytes32","internalType":"bytes32"},{"name":"minResolveTimestamp","type":"uint256","internalType":"uint256"},{"name":"lockedReward","type":"uint256","internalType":"uint256"},{"name":"location","type":"tuple","internalType":"struct StashCampaign.Coordinate","components":[{"name":"lat","type":"int256","internalType":"int256"},{"name":"long","type":"int256","internalType":"int256"}]},{"name":"status","type":"uint8","internalType":"enum StashCampaign.SubmissionStatus"}],"stateMutability":"view"},{"type":"function","name":"vote","inputs":[{"name":"submissionId","type":"address","internalType":"address"},{"name":"opinion","type":"uint8","internalType":"enum StashCampaign.VoteOpinion"}],"outputs":[],"stateMutability":"nonpayable"},{"type":"event","name":"Disputed","inputs":[{"name":"submissionID","type":"address","indexed":true,"internalType":"address"},{"name":"Disputor","type":"address","indexed":true,"internalType":"address"}],"anonymous":false},{"type":"event","name":"Resolved","inputs":[{"name":"submissionID","type":"address","indexed":true,"internalType":"address"}],"anonymous":false},{"type":"event","name":"SubmissionCreated","inputs":[{"name":"submitter","type":"address","indexed":true,"internalType":"address"}],"anonymous":false},{"type":"event","name":"SubmissionFinalized","inputs":[{"name":"submissionID","type":"address","indexed":true,"internalType":"address"},{"name":"status","type":"uint8","indexed":false,"internalType":"enum StashCampaign.SubmissionStatus"},{"name":"minResolveTimestamp","type":"uint256","indexed":false,"internalType":"uint256"}],"anonymous":false},{"type":"event","name":"VoteRequested","inputs":[{"name":"submissionID","type":"address","indexed":true,"internalType":"address"},{"name":"verifier","type":"address","indexed":true,"internalType":"address"}],"anonymous":false},{"type":"event","name":"Voted","inputs":[{"name":"submissionID","type":"address","indexed":true,"internalType":"address"},{"name":"verifier","type":"address","indexed":true,"internalType":"address"}],"anonymous":false}],"bytecode":{"object":"0x6102206040526078608052600360a052603c60c05260001960005534801561002657600080fd5b50604051612fcf380380612fcf8339810160408190526100459161011a565b60e09b909b526001600160a01b03998a1661010052610120989098526101409690965261016094909452918616610180528051600155602090810151600255815160035501516004556101c05282166101e05216610200526101a0526101f6565b6001600160a01b03811681146100bb57600080fd5b50565b6000604082840312156100d057600080fd5b604080519081016001600160401b038111828210171561010057634e487b7160e01b600052604160045260246000fd5b604052825181526020928301519281019290925250919050565b6000806000806000806000806000806000806101c08d8f03121561013d57600080fd5b8c5160208e0151909c50610150816100a6565b809b5050600060408e01519050809a5050600060608e0151905080995050600060808e015190508098505060a08d0151610189816100a6565b96506101988e60c08f016100be565b95506101a88e6101008f016100be565b6101408e01516101608f015191965094506101c2816100a6565b6101808e01519093506101d4816100a6565b8092505060006101a08e01519050809150509295989b509295989b509295989b565b60805160a05160c05160e05161010051610120516101405161016051610180516101a0516101c0516101e05161020051612c6b6103646000396000818161045d01526109580152600081816103c101526105b10152600061026901526000818161039a015281816106b301528181610fd1015281816111af015281816114950152611673015260008181610436015281816106dc01528181610e3301528181611183015281816112cf01528181611647015281816117930152611cd401526000818161019b0152611b6401526000818161016101528181610a430152611994015260006103e80152600081816101e8015281816109260152611cfd0152600081816103270152611c2a01526000818161040f01526127cf015260008181610361015281816108af01528181611ae2015281816121d20152818161255401528181612599015281816125e5015261286001526000818161022701528181610ab40152611b230152612c6b6000f3fe608060405234801561001057600080fd5b50600436106101425760003560e01c806389e14e16116100b8578063d96058671161007c578063d9605867146103bc578063ef430aa6146103e3578063f585dc571461040a578063f7c618c114610431578063fb5e76e614610458578063fe2932dd1461047f57600080fd5b806389e14e16146102b3578063ad8805fd14610322578063bceb514d14610349578063be4985c41461035c578063d69083e01461039557600080fd5b806376daefd01161010a57806376daefd0146101e3578063777452a41461022257806378a1ca7b146102495780637b932c6c1461025c57806385dcee931461026457806386dd91931461028b57600080fd5b8063033c900814610147578063158dec251461015c578063228cb73314610196578063500d56e1146101bd57806355ea6c47146101d0575b600080fd5b61015a6101553660046128a5565b610492565b005b6101837f000000000000000000000000000000000000000000000000000000000000000081565b6040519081526020015b60405180910390f35b6101837f000000000000000000000000000000000000000000000000000000000000000081565b61015a6101cb3660046128cf565b61091b565b61015a6101de3660046128cf565b610b6f565b61020a7f000000000000000000000000000000000000000000000000000000000000000081565b6040516001600160a01b03909116815260200161018d565b6101837f000000000000000000000000000000000000000000000000000000000000000081565b61015a6102573660046128f1565b6118b8565b61015a611c28565b6101837f000000000000000000000000000000000000000000000000000000000000000081565b61029e610299366004612923565b611dfa565b6040805192835260208301919091520161018d565b6103106102c13660046128cf565b6006602081815260009283526040928390208054600182015460028301546003840154875180890190985260048501548852600585015495880195909552929094015490949192919060ff1686565b60405161018d96959493929190612974565b6101837f000000000000000000000000000000000000000000000000000000000000000081565b61015a6103573660046129ba565b611e1c565b6103837f000000000000000000000000000000000000000000000000000000000000000081565b60405160ff909116815260200161018d565b6101837f000000000000000000000000000000000000000000000000000000000000000081565b61020a7f000000000000000000000000000000000000000000000000000000000000000081565b6101837f000000000000000000000000000000000000000000000000000000000000000081565b6101837f000000000000000000000000000000000000000000000000000000000000000081565b61020a7f000000000000000000000000000000000000000000000000000000000000000081565b61020a7f000000000000000000000000000000000000000000000000000000000000000081565b61020a61048d366004612923565b61220f565b6001600160a01b0382166000908152600660205260408120600201548391036104d65760405162461bcd60e51b81526004016104cd906129f5565b60405180910390fd5b8260016001600160a01b0382166000908152600660208190526040909120015460ff16600381111561050a5761050a61293c565b1480610546575060026001600160a01b0382166000908152600660208190526040909120015460ff1660038111156105445761054461293c565b145b6105925760405162461bcd60e51b815260206004820152601b60248201527f5375626d697373696f6e206973206e6f742066696e616c697a6564000000000060448201526064016104cd565b604051637880243160e11b81526001600160a01b0385811660048301527f0000000000000000000000000000000000000000000000000000000000000000169063f100486290602401602060405180830381865afa1580156105f8573d6000803e3d6000fd5b505050506040513d601f19601f8201168201806040525081019061061c9190612a2c565b158061063057506001600160a01b03841633145b6106985760405162461bcd60e51b815260206004820152603360248201527f43616e206e6f74206469737075746520757365727320776974682070726f7665604482015272642070726f6f66206f662068756d616e69747960681b60648201526084016104cd565b6040516323b872dd60e01b81523360048201523060248201527f000000000000000000000000000000000000000000000000000000000000000060448201526000907f00000000000000000000000000000000000000000000000000000000000000006001600160a01b0316906323b872dd906064016020604051808303816000875af115801561072d573d6000803e3d6000fd5b505050506040513d601f19601f820116820180604052508101906107519190612a2c565b9050806107705760405162461bcd60e51b81526004016104cd90612a4e565b83156107a5576001600160a01b0385166000908152600660209081526040822060090180546001810182559083529120018490555b6001600160a01b03851660009081526006602081905260408220015460019060ff1660038111156107d8576107d861293c565b146107e45760026107e7565b60035b905060066000876001600160a01b03166001600160a01b031681526020019081526020016000206008016040518060400160405280336001600160a01b0316815260200183600381111561083d5761083d61293c565b9052815460018101835560009283526020928390208251910180546001600160a01b031981166001600160a01b03909316928317825593830151929390929183916001600160a81b03191617600160a01b8360038111156108a0576108a061293c565b021790555050506108dd8660017f00000000000000000000000000000000000000000000000000000000000000006108d89190612a93565b612239565b60405133906001600160a01b038816907f952b7e5c2c7ec2cea391782e13a57e522a8e19c5b71cfa7d3c25319ae49cfa3490600090a3505050505050565b336001600160a01b037f000000000000000000000000000000000000000000000000000000000000000016148061097a5750336001600160a01b037f000000000000000000000000000000000000000000000000000000000000000016145b610a055760405162461bcd60e51b815260206004820152605060248201527f4f6e6c792063616d706169676e2063726561746f7220616e642063616d70616960448201527f676e206d616e6167657220636f6e74726163742063616e20637265617465206460648201526f756d6d79207375626d697373696f6e7360801b608482015260a4016104cd565b6001600160a01b03811660009081526006602052604090206002015415610a3e5760405162461bcd60e51b81526004016104cd90612ab2565b6005547f000000000000000000000000000000000000000000000000000000000000000011610aaf5760405162461bcd60e51b815260206004820181905260248201527f5265616368656420746865206c696d6974206f66207375626d697373696f6e7360448201526064016104cd565b610ad97f000000000000000000000000000000000000000000000000000000000000000042612afe565b6001600160a01b038216600081815260066020819052604080832060028101959095559301805460ff19169055600580546001810182559082527f036b6384b5eca791c62761152d0c79bb0604c104a5fb6f4eb0703f3154bb3db00180546001600160a01b03191683179055915190917f7810d39a57351fd6c467ef50a5fd9c9f2cb50907503b003ccae50bc376eceb5c91a250565b6001600160a01b038116600090815260066020526040812060020154829103610baa5760405162461bcd60e51b81526004016104cd906129f5565b8160016001600160a01b0382166000908152600660208190526040909120015460ff166003811115610bde57610bde61293c565b1480610c1a575060026001600160a01b0382166000908152600660208190526040909120015460ff166003811115610c1857610c1861293c565b145b610c665760405162461bcd60e51b815260206004820152601b60248201527f5375626d697373696f6e206973206e6f742066696e616c697a6564000000000060448201526064016104cd565b6001600160a01b038316600090815260066020526040902060020154421015610cdd5760405162461bcd60e51b8152602060048201526024808201527f4d696e207265736f6c76652074696d657374616d70206973206e6f742072656160448201526318da195960e21b60648201526084016104cd565b60005b6001600160a01b038416600090815260066020526040902060070154811015610dc0576001600160a01b0384166000908152600660205260409020600701805482908110610d3057610d30612b11565b600091825260209091200154600160a01b900460ff16610db85760405162461bcd60e51b815260206004820152603d60248201527f43616e207265736f6c7665207375626d697373696f6e206f6e6c79206166746560448201527f7220616c6c20726571756572656420766f74657320617265206361737400000060648201526084016104cd565b600101610ce0565b5060016001600160a01b0384166000908152600660208190526040909120015460ff166003811115610df457610df461293c565b036113a6576001600160a01b0383811660008181526006602052604080822060030154905163a9059cbb60e01b815260048101939093526024830152917f0000000000000000000000000000000000000000000000000000000000000000169063a9059cbb906044016020604051808303816000875af1158015610e7c573d6000803e3d6000fd5b505050506040513d601f19601f82011682018060405250810190610ea09190612a2c565b905080610ee05760405162461bcd60e51b815260206004820152600e60248201526d2a37b5b2b7103a3930b739b332b960911b60448201526064016104cd565b6001600160a01b038416600090815260066020526040812060030181905580805b6001600160a01b038716600090815260066020526040902060080154811015611097576001600160a01b0387166000908152600660205260408120600801805483908110610f5157610f51612b11565b600091825260209182902060408051808201909152910180546001600160a01b03811683529192909190830190600160a01b900460ff166003811115610f9957610f9961293c565b6003811115610faa57610faa61293c565b9052509050600381602001516003811115610fc757610fc761293c565b03610ffd57610ff67f000000000000000000000000000000000000000000000000000000000000000085612afe565b935061108e565b6001816020015160038111156110155761101561293c565b036110805780516001600160a01b031660009081526006602052604090206003015461104390600290612b3d565b81516001600160a01b031660009081526006602052604081206003018054929650600292909190611075908490612b3d565b9091555061108e9050565b8261108a81612b51565b9350505b50600101610f01565b5060006110a48284612b3d565b905060005b6001600160a01b03881660009081526006602052604090206008015481101561139c576001600160a01b03881660009081526006602052604081206008018054839081106110f9576110f9612b11565b600091825260209182902060408051808201909152910180546001600160a01b03811683529192909190830190600160a01b900460ff1660038111156111415761114161293c565b60038111156111525761115261293c565b905250905060028160200151600381111561116f5761116f61293c565b036112645780516000906001600160a01b037f0000000000000000000000000000000000000000000000000000000000000000169063a9059cbb906111d47f000000000000000000000000000000000000000000000000000000000000000088612afe565b6040516001600160e01b031960e085901b1681526001600160a01b03909216600483015260248201526044016020604051808303816000875af115801561121f573d6000803e3d6000fd5b505050506040513d601f19601f820116820180604052508101906112439190612a2c565b9050806112625760405162461bcd60e51b81526004016104cd90612a4e565b505b60008160200151600381111561127c5761127c61293c565b036113935780516001600160a01b0316600090815260066020526040812060030154900361136157805160405163a9059cbb60e01b81526001600160a01b039182166004820152602481018590526000917f0000000000000000000000000000000000000000000000000000000000000000169063a9059cbb906044016020604051808303816000875af1158015611318573d6000803e3d6000fd5b505050506040513d601f19601f8201168201806040525081019061133c9190612a2c565b90508061135b5760405162461bcd60e51b81526004016104cd90612a4e565b50611393565b80516001600160a01b03166000908152600660205260408120600301805485929061138d908490612afe565b90915550505b506001016110a9565b5050505050611865565b6001600160a01b03831660009081526006602052604081206003015490805b6001600160a01b03861660009081526006602052604090206008015481101561155b576001600160a01b038616600090815260066020526040812060080180548390811061141557611415612b11565b600091825260209182902060408051808201909152910180546001600160a01b03811683529192909190830190600160a01b900460ff16600381111561145d5761145d61293c565b600381111561146e5761146e61293c565b905250905060028160200151600381111561148b5761148b61293c565b036114c1576114ba7f000000000000000000000000000000000000000000000000000000000000000085612afe565b9350611552565b6000816020015160038111156114d9576114d961293c565b036115445780516001600160a01b031660009081526006602052604090206003015461150790600290612b3d565b81516001600160a01b031660009081526006602052604081206003018054929650600292909190611539908490612b3d565b909155506115529050565b8261154e81612b51565b9350505b506001016113c5565b5060006115688284612b3d565b905060005b6001600160a01b038716600090815260066020526040902060080154811015611860576001600160a01b03871660009081526006602052604081206008018054839081106115bd576115bd612b11565b600091825260209182902060408051808201909152910180546001600160a01b03811683529192909190830190600160a01b900460ff1660038111156116055761160561293c565b60038111156116165761161661293c565b90525090506003816020015160038111156116335761163361293c565b036117285780516000906001600160a01b037f0000000000000000000000000000000000000000000000000000000000000000169063a9059cbb906116987f000000000000000000000000000000000000000000000000000000000000000088612afe565b6040516001600160e01b031960e085901b1681526001600160a01b03909216600483015260248201526044016020604051808303816000875af11580156116e3573d6000803e3d6000fd5b505050506040513d601f19601f820116820180604052508101906117079190612a2c565b9050806117265760405162461bcd60e51b81526004016104cd90612a4e565b505b6001816020015160038111156117405761174061293c565b036118575780516001600160a01b0316600090815260066020526040812060030154900361182557805160405163a9059cbb60e01b81526001600160a01b039182166004820152602481018590526000917f0000000000000000000000000000000000000000000000000000000000000000169063a9059cbb906044016020604051808303816000875af11580156117dc573d6000803e3d6000fd5b505050506040513d601f19601f820116820180604052508101906118009190612a2c565b90508061181f5760405162461bcd60e51b81526004016104cd90612a4e565b50611857565b80516001600160a01b031660009081526006602052604081206003018054859290611851908490612afe565b90915550505b5060010161156d565b505050505b6001600160a01b0383166000818152600660208190526040808320909101805460ff19166003179055517fd7f9e268a7b73266b018e33a21334c62cd762d663acc0f052eb872992da319db9190a2505050565b60035482128015906118cc57506001548213155b6119235760405162461bcd60e51b815260206004820152602260248201527f4c6f636174696f6e206f757473696465206f6620617265613a206c6174697475604482015261646560f01b60648201526084016104cd565b600254811280159061193757506004548113155b61198f5760405162461bcd60e51b815260206004820152602360248201527f4c6f636174696f6e206f757473696465206f6620617265613a206c6f6e67697460448201526275646560e81b60648201526084016104cd565b6005547f000000000000000000000000000000000000000000000000000000000000000011611a005760405162461bcd60e51b815260206004820181905260248201527f5265616368656420746865206c696d6974206f66207375626d697373696f6e7360448201526064016104cd565b3360009081526006602052604090206002015415611a305760405162461bcd60e51b81526004016104cd90612ab2565b6000849003611a815760405162461bcd60e51b815260206004820152601b60248201527f50686f746f20686173682063616e206e6f7420626520656d707479000000000060448201526064016104cd565b6000839003611adc5760405162461bcd60e51b815260206004820152602160248201527f4465736372697074696f6e20686173682063616e206e6f7420626520656d70746044820152607960f81b60648201526084016104cd565b611b06337f0000000000000000000000000000000000000000000000000000000000000000612239565b336000908152600660205260409020848155600101839055611b487f000000000000000000000000000000000000000000000000000000000000000042612afe565b33600081815260066020818152604080842060028101969096557f000000000000000000000000000000000000000000000000000000000000000060038701558051808201825288815280830188815286865292849052516004870155905160058087019190915594909101805460ff1916905583546001810185559382527f036b6384b5eca791c62761152d0c79bb0604c104a5fb6f4eb0703f3154bb3db090930180546001600160a01b03191683179055915190917f7810d39a57351fd6c467ef50a5fd9c9f2cb50907503b003ccae50bc376eceb5c91a250505050565b7f00000000000000000000000000000000000000000000000000000000000000004211611cb45760405162461bcd60e51b815260206004820152603460248201527f43616d706169676e20686173206e6f7420657870697265642c20746f6b656e736044820152730818d85b881b9bdd081899481c9958dbdd5c195960621b60648201526084016104cd565b6040516370a0823160e01b81523060048201526000906001600160a01b037f0000000000000000000000000000000000000000000000000000000000000000169063a9059cbb907f00000000000000000000000000000000000000000000000000000000000000009083906370a0823190602401602060405180830381865afa158015611d45573d6000803e3d6000fd5b505050506040513d601f19601f82011682018060405250810190611d699190612b6a565b6040516001600160e01b031960e085901b1681526001600160a01b03909216600483015260248201526044016020604051808303816000875af1158015611db4573d6000803e3d6000fd5b505050506040513d601f19601f82011682018060405250810190611dd89190612a2c565b905080611df75760405162461bcd60e51b81526004016104cd90612a4e565b50565b60018160028110611e0a57600080fd5b60020201805460019091015490915082565b6001600160a01b038216600090815260066020526040812060020154839103611e575760405162461bcd60e51b81526004016104cd906129f5565b336000818152600660205260408120600201549003611e885760405162461bcd60e51b81526004016104cd906129f5565b6000836003811115611e9c57611e9c61293c565b1480611eb957506001836003811115611eb757611eb761293c565b145b611f055760405162461bcd60e51b815260206004820152601760248201527f43616e20766f7465206f6e6c7920596573206f72204e6f00000000000000000060448201526064016104cd565b60008054905b33600090815260066020526040902060070154811015611f7b5733600090815260066020526040902060070180546001600160a01b038816919083908110611f5557611f55612b11565b6000918252602090912001546001600160a01b031603611f73578091505b600101611f0b565b506000548103611ff35760405162461bcd60e51b815260206004820152603960248201527f43616e206f6e6c7920766f7465206f6e207375626d697373696f6e732077686560448201527f72652074686520766f746520776173207265717565737465640000000000000060648201526084016104cd565b33600090815260066020526040902060070180548290811061201757612017612b11565b600091825260209091200154600160a01b900460ff16156120855760405162461bcd60e51b815260206004820152602260248201527f43616e206e6f7420766f7465207477696365206f6e2061207375626d6973736960448201526137b760f11b60648201526084016104cd565b336000908152600660205260409020600701805460019190839081106120ad576120ad612b11565b600091825260208083209091018054931515600160a01b0260ff60a01b19909416939093179092556001600160a01b038716815260068252604090819020815180830190925233825260080191810186600381111561210e5761210e61293c565b9052815460018101835560009283526020928390208251910180546001600160a01b031981166001600160a01b03909316928317825593830151929390929183916001600160a81b03191617600160a01b8360038111156121715761217161293c565b0217905550506040513391506001600160a01b038716907fce0c7a2a940807f7dc2ce7a615c2532e915e6c0ac9a08bc4ed9d515a710a53e290600090a36001600160a01b0385166000908152600660205260409020600801546121f89060ff7f00000000000000000000000000000000000000000000000000000000000000001690612b83565b6000036122085761220885612531565b5050505050565b6005818154811061221f57600080fd5b6000918252602090912001546001600160a01b0316905081565b60055460ff821611156122da5760405162461bcd60e51b815260206004820152605a60248201527f4e6f7420656e6f756768206578697374696e67207375626d697373696f6e732060448201527f746f2061737369676e207665726966696572732c20706c65617365206372656160648201527f746520736f6d652064756d6d79207375626d697373696f6e732e000000000000608482015260a4016104cd565b60008160ff1667ffffffffffffffff8111156122f8576122f8612b97565b604051908082528060200260200182016040528015612321578160200160208202803683370190505b509050600160005b8360ff16811015612431576005805460009182916123478643612bad565b612352919040612b83565b8154811061236257612362612b11565b6000918252602090912001546001600160a01b03169050612384600185612afe565b935060005b838110156123d057816001600160a01b03168682815181106123ad576123ad612b11565b60200260200101516001600160a01b0316036123c857600192505b600101612389565b508161240e57808584815181106123e9576123e9612b11565b60200260200101906001600160a01b031690816001600160a01b03168152505061241c565b8261241881612bc0565b9350505b5050808061242990612b51565b915050612329565b5060005b8251811015612208576006600084838151811061245457612454612b11565b6020908102919091018101516001600160a01b0390811683528282019390935260409182016000908120835180850190945289851684528383018281526007909101805460018101825590835292909120925192909101805491511515600160a01b026001600160a81b0319909216929093169190911717905582518390829081106124e2576124e2612b11565b60200260200101516001600160a01b0316856001600160a01b03167ff697f0b76868f0fc53b68a98b838d026f1dc9f318805a4daa3e27415bfec067360405160405180910390a3600101612435565b6001600160a01b03811660009081526006602052604090206008015461257a60ff7f00000000000000000000000000000000000000000000000000000000000000001682612b83565b156125975760405162461bcd60e51b81526004016104cd90612bd7565b7f000000000000000000000000000000000000000000000000000000000000000060ff168110156125da5760405162461bcd60e51b81526004016104cd90612bd7565b6001600061260b60ff7f00000000000000000000000000000000000000000000000000000000000000001684612bad565b90505b612619600184612bad565b8110156126fe576001600160a01b0384166000908152600660205260409020600290600801612649836001612afe565b8154811061265957612659612b11565b600091825260209091200154600160a01b900460ff1660038111156126805761268061293c565b61268a9190612b83565b6001600160a01b0385166000908152600660205260409020600801805460029190849081106126bb576126bb612b11565b600091825260209091200154600160a01b900460ff1660038111156126e2576126e261293c565b6126ec9190612b83565b146126f657600091505b60010161260e565b50801561285a576001600160a01b038316600090815260066020526040902060029060080161272e600185612bad565b8154811061273e5761273e612b11565b600091825260209091200154600160a01b900460ff1660038111156127655761276561293c565b61276f9190612b83565b6000036127a2576001600160a01b038316600090815260066020819052604090912001805460ff191660011790556127ca565b6001600160a01b038316600090815260066020819052604090912001805460ff191660021790555b6127f47f000000000000000000000000000000000000000000000000000000000000000042612afe565b6001600160a01b038416600081815260066020819052604091829020600281018590550154905191927f1f2b33b77cf1d0d8cf4eef2099ee1f8193b6c30d1dba95f46b8b797b0ca1de389261284d9260ff169190612c1a565b60405180910390a2505050565b612884837f0000000000000000000000000000000000000000000000000000000000000000612239565b505050565b80356001600160a01b03811681146128a057600080fd5b919050565b600080604083850312156128b857600080fd5b6128c183612889565b946020939093013593505050565b6000602082840312156128e157600080fd5b6128ea82612889565b9392505050565b6000806000806080858703121561290757600080fd5b5050823594602084013594506040840135936060013592509050565b60006020828403121561293557600080fd5b5035919050565b634e487b7160e01b600052602160045260246000fd5b6004811061297057634e487b7160e01b600052602160045260246000fd5b9052565b600060e08201905087825286602083015285604083015284606083015283516080830152602084015160a08301526129af60c0830184612952565b979650505050505050565b600080604083850312156129cd57600080fd5b6129d683612889565b91506020830135600481106129ea57600080fd5b809150509250929050565b60208082526019908201527f5375626d697373696f6e20646f6573206e6f7420657869737400000000000000604082015260600190565b600060208284031215612a3e57600080fd5b815180151581146128ea57600080fd5b602080825260159082015274151bdad95b881d1c985b9cd9995c8819985a5b1959605a1b604082015260600190565b634e487b7160e01b600052601160045260246000fd5b60ff8281168282160390811115612aac57612aac612a7d565b92915050565b6020808252602c908201527f5375626d697373696f6e20616c726561647920637265617465642066726f6d2060408201526b74686973206164647265737360a01b606082015260800190565b80820180821115612aac57612aac612a7d565b634e487b7160e01b600052603260045260246000fd5b634e487b7160e01b600052601260045260246000fd5b600082612b4c57612b4c612b27565b500490565b600060018201612b6357612b63612a7d565b5060010190565b600060208284031215612b7c57600080fd5b5051919050565b600082612b9257612b92612b27565b500690565b634e487b7160e01b600052604160045260246000fd5b81810381811115612aac57612aac612a7d565b600081612bcf57612bcf612a7d565b506000190190565b60208082526023908201527f566572696669636174696f6e20726f756e64206973206e6f7420636f6d706c656040820152621d195960ea1b606082015260800190565b60408101612c288285612952565b826020830152939250505056fea264697066735822122084ec1274347fc45e504e2eb5f10959cb529e410536109609fce939765cc8d0aa64736f6c634300081a0033","linkReferences":{}},"methodIdentifiers":{"DISPUTE_WINDOW()":"f585dc57","MIN_SUBMISSION_DURATION()":"777452a4","VERIFICATION_ROUND_SIZE()":"be4985c4","campaignArea(uint256)":"86dd9193","campaignCreator()":"76daefd0","campaignExpirationTimestamp()":"ad8805fd","campaignManager()":"fb5e76e6","category()":"ef430aa6","createDummySubmission(address)":"500d56e1","createSubmission(bytes32,bytes32,int256,int256)":"78a1ca7b","descriptionHash()":"85dcee93","disputDepositAmount()":"d69083e0","dispute(address,bytes32)":"033c9008","maxSubmissions()":"158dec25","proofOfHumanity()":"d9605867","recoupCampaignTokens()":"7b932c6c","resolve(address)":"55ea6c47","reward()":"228cb733","rewardToken()":"f7c618c1","submissionIds(uint256)":"fe2932dd","submissions(address)":"89e14e16","vote(address,uint8)":"bceb514d"},"id":0}