{"abi":[{"type":"constructor","inputs":[{"name":"_proofOfHumanity","type":"address","internalType":"contract ProofOfHumanity"}],"stateMutability":"nonpayable"},{"type":"function","name":"CAMPAIGN_DURATION","inputs":[],"outputs":[{"name":"","type":"uint256","internalType":"uint256"}],"stateMutability":"view"},{"type":"function","name":"DISPUT_DEPOSIT_AMOUNT","inputs":[],"outputs":[{"name":"","type":"uint256","internalType":"uint256"}],"stateMutability":"view"},{"type":"function","name":"campaigns","inputs":[{"name":"","type":"uint256","internalType":"uint256"}],"outputs":[{"name":"","type":"address","internalType":"address"}],"stateMutability":"view"},{"type":"function","name":"createCampaign","inputs":[{"name":"category","type":"uint256","internalType":"uint256"},{"name":"maxSubmissions","type":"uint256","internalType":"uint256"},{"name":"reward","type":"uint256","internalType":"uint256"},{"name":"rewardToken","type":"address","internalType":"contract IERC20"},{"name":"topLeft","type":"tuple","internalType":"struct StashCampaign.Coordinate","components":[{"name":"lat","type":"uint256","internalType":"uint256"},{"name":"long","type":"uint256","internalType":"uint256"}]},{"name":"bottomRight","type":"tuple","internalType":"struct StashCampaign.Coordinate","components":[{"name":"lat","type":"uint256","internalType":"uint256"},{"name":"long","type":"uint256","internalType":"uint256"}]},{"name":"descriptionHash","type":"bytes32","internalType":"bytes32"},{"name":"dummy1","type":"address","internalType":"address"},{"name":"dummy2","type":"address","internalType":"address"},{"name":"dummy3","type":"address","internalType":"address"}],"outputs":[],"stateMutability":"nonpayable"},{"type":"function","name":"proofOfHumanity","inputs":[],"outputs":[{"name":"","type":"address","internalType":"contract ProofOfHumanity"}],"stateMutability":"view"},{"type":"event","name":"CampaignCreated","inputs":[{"name":"campaign","type":"address","indexed":true,"internalType":"address"}],"anonymous":false}],"bytecode":{"object":"0x60e060405261012c608052678ac7230489e8000060a05234801561002257600080fd5b506040516138ea3803806138ea83398101604081905261004191610052565b6001600160a01b031660c052610082565b60006020828403121561006457600080fd5b81516001600160a01b038116811461007b57600080fd5b9392505050565b60805160a05160c0516138266100c460003960008181610102015261026301526000818160c601526102850152600081816061015261023401526138266000f3fe608060405234801561001057600080fd5b50600436106100575760003560e01c806308fd4cfa1461005c578063141961bc14610096578063318ad9ba146100c1578063b606f4e8146100e8578063d9605867146100fd575b600080fd5b6100837f000000000000000000000000000000000000000000000000000000000000000081565b6040519081526020015b60405180910390f35b6100a96100a4366004610565565b610124565b6040516001600160a01b03909116815260200161008d565b6100837f000000000000000000000000000000000000000000000000000000000000000081565b6100fb6100f63660046105f3565b61014e565b005b6100a97f000000000000000000000000000000000000000000000000000000000000000081565b6000818154811061013457600080fd5b6000918252602090912001546001600160a01b0316905081565b61015889896106b5565b6040516370a0823160e01b81523360048201526001600160a01b038916906370a0823190602401602060405180830381865afa15801561019c573d6000803e3d6000fd5b505050506040513d601f19601f820116820180604052508101906101c091906106d2565b101561022d5760405162461bcd60e51b815260206004820152603160248201527f496e73756666696369656e742062616c616e636520746f20696e697469616c696044820152703d329039ba30b9b41031b0b6b830b4b3b760791b60648201526084015b60405180910390fd5b60006102597f0000000000000000000000000000000000000000000000000000000000000000426106eb565b338c8c8c8c8c8c8c7f0000000000000000000000000000000000000000000000000000000000000000307f00000000000000000000000000000000000000000000000000000000000000006040516102b090610558565b6102c59c9b9a999897969594939291906106fe565b604051809103906000f0801580156102e1573d6000803e3d6000fd5b50600080546001810182558180527f290decd9548b62a8d60345a988386fc84ba6bc95484008f6362f93160ef3e5630180546001600160a01b0319166001600160a01b03848116919091179091559192509089166323b872dd33846103468f8f6106b5565b6040516001600160e01b031960e086901b1681526001600160a01b03938416600482015292909116602483015260448201526064016020604051808303816000875af115801561039a573d6000803e3d6000fd5b505050506040513d601f19601f820116820180604052508101906103be9190610791565b9050806104055760405162461bcd60e51b8152602060048201526015602482015274151bdad95b881d1c985b9cd9995c8819985a5b1959605a1b6044820152606401610224565b6040516001600160a01b038316907f07a9c134c6ed9c353773b355c69cbf65e34e3c3820554f5b8e1afdecdfb4029290600090a260405163500d56e160e01b81526001600160a01b03868116600483015283169063500d56e190602401600060405180830381600087803b15801561047c57600080fd5b505af1158015610490573d6000803e3d6000fd5b505060405163500d56e160e01b81526001600160a01b0387811660048301528516925063500d56e19150602401600060405180830381600087803b1580156104d757600080fd5b505af11580156104eb573d6000803e3d6000fd5b505060405163500d56e160e01b81526001600160a01b0386811660048301528516925063500d56e19150602401600060405180830381600087803b15801561053257600080fd5b505af1158015610546573d6000803e3d6000fd5b50505050505050505050505050505050565b613036806107bb83390190565b60006020828403121561057757600080fd5b5035919050565b6001600160a01b038116811461059357600080fd5b50565b6000604082840312156105a857600080fd5b6040516040810181811067ffffffffffffffff821117156105d957634e487b7160e01b600052604160045260246000fd5b604052823581526020928301359281019290925250919050565b6000806000806000806000806000806101808b8d03121561061357600080fd5b8a35995060208b0135985060408b0135975060608b01356106338161057e565b96506106428c60808d01610596565b95506106518c60c08d01610596565b94506101008b013593506101208b013561066a8161057e565b92506101408b013561067b8161057e565b91506101608b013561068c8161057e565b809150509295989b9194979a5092959850565b634e487b7160e01b600052601160045260246000fd5b80820281158282048414176106cc576106cc61069f565b92915050565b6000602082840312156106e457600080fd5b5051919050565b808201808211156106cc576106cc61069f565b8c81526001600160a01b038c81166020830152604082018c9052606082018b9052608082018a9052881660a08201526101c0810161074960c083018980518252602090810151910152565b865161010083015260208701516101208301526101408201959095526001600160a01b03938416610160820152919092166101808201526101a0015298975050505050505050565b6000602082840312156107a357600080fd5b815180151581146107b357600080fd5b939250505056fe6102206040526078608052600360a052603c60c05260001960005534801561002657600080fd5b506040516130363803806130368339810160408190526100459161011a565b60e09b909b526001600160a01b03998a1661010052610120989098526101409690965261016094909452918616610180528051600155602090810151600255815160035501516004556101c05282166101e05216610200526101a0526101f6565b6001600160a01b03811681146100bb57600080fd5b50565b6000604082840312156100d057600080fd5b604080519081016001600160401b038111828210171561010057634e487b7160e01b600052604160045260246000fd5b604052825181526020928301519281019290925250919050565b6000806000806000806000806000806000806101c08d8f03121561013d57600080fd5b8c5160208e0151909c50610150816100a6565b809b5050600060408e01519050809a5050600060608e0151905080995050600060808e015190508098505060a08d0151610189816100a6565b96506101988e60c08f016100be565b95506101a88e6101008f016100be565b6101408e01516101608f015191965094506101c2816100a6565b6101808e01519093506101d4816100a6565b8092505060006101a08e01519050809150509295989b509295989b509295989b565b60805160a05160c05160e05161010051610120516101405161016051610180516101a0516101c0516101e05161020051612cd26103646000396000818161045d01526109580152600081816103c101526105b10152600061025601526000818161039a015281816106b301528181610fd1015281816111af015281816114950152611673015260008181610436015281816106dc01528181610e3301528181611183015281816112cf0152818161164701528181611793015261196401526000818161019b0152611d6201526000818161016101528181610a430152611b92015260006103e80152600081816101e801528181610926015261198d01526000818161032701526118ba01526000818161040f01526127e6015260008181610361015281816108af01528181611ce0015281816121d001528181612560015281816125a5015281816125f2015261287701526000818161022701528181610ab40152611d210152612cd26000f3fe608060405234801561001057600080fd5b50600436106101425760003560e01c80639026fa7b116100b8578063d96058671161007c578063d9605867146103bc578063ef430aa6146103e3578063f585dc571461040a578063f7c618c114610431578063fb5e76e614610458578063fe2932dd1461047f57600080fd5b80639026fa7b1461030f578063ad8805fd14610322578063bceb514d14610349578063be4985c41461035c578063d69083e01461039557600080fd5b806376daefd01161010a57806376daefd0146101e3578063777452a4146102225780637b932c6c1461024957806385dcee931461025157806386dd91931461027857806389e14e16146102a057600080fd5b8063033c900814610147578063158dec251461015c578063228cb73314610196578063500d56e1146101bd57806355ea6c47146101d0575b600080fd5b61015a6101553660046128bc565b610492565b005b6101837f000000000000000000000000000000000000000000000000000000000000000081565b6040519081526020015b60405180910390f35b6101837f000000000000000000000000000000000000000000000000000000000000000081565b61015a6101cb3660046128e6565b61091b565b61015a6101de3660046128e6565b610b6f565b61020a7f000000000000000000000000000000000000000000000000000000000000000081565b6040516001600160a01b03909116815260200161018d565b6101837f000000000000000000000000000000000000000000000000000000000000000081565b61015a6118b8565b6101837f000000000000000000000000000000000000000000000000000000000000000081565b61028b610286366004612908565b611a8a565b6040805192835260208301919091520161018d565b6102fd6102ae3660046128e6565b6006602081815260009283526040928390208054600182015460028301546003840154875180890190985260048501548852600585015495880195909552929094015490949192919060ff1686565b60405161018d96959493929190612959565b61015a61031d3660046129b5565b611aac565b6101837f000000000000000000000000000000000000000000000000000000000000000081565b61015a610357366004612a37565b611e11565b6103837f000000000000000000000000000000000000000000000000000000000000000081565b60405160ff909116815260200161018d565b6101837f000000000000000000000000000000000000000000000000000000000000000081565b61020a7f000000000000000000000000000000000000000000000000000000000000000081565b6101837f000000000000000000000000000000000000000000000000000000000000000081565b6101837f000000000000000000000000000000000000000000000000000000000000000081565b61020a7f000000000000000000000000000000000000000000000000000000000000000081565b61020a7f000000000000000000000000000000000000000000000000000000000000000081565b61020a61048d366004612908565b61220d565b6001600160a01b0382166000908152600660205260408120600201548391036104d65760405162461bcd60e51b81526004016104cd90612a72565b60405180910390fd5b8260016001600160a01b0382166000908152600660208190526040909120015460ff16600381111561050a5761050a612921565b1480610546575060026001600160a01b0382166000908152600660208190526040909120015460ff16600381111561054457610544612921565b145b6105925760405162461bcd60e51b815260206004820152601b60248201527f5375626d697373696f6e206973206e6f742066696e616c697a6564000000000060448201526064016104cd565b604051637880243160e11b81526001600160a01b0385811660048301527f0000000000000000000000000000000000000000000000000000000000000000169063f100486290602401602060405180830381865afa1580156105f8573d6000803e3d6000fd5b505050506040513d601f19601f8201168201806040525081019061061c9190612aa9565b158061063057506001600160a01b03841633145b6106985760405162461bcd60e51b815260206004820152603360248201527f43616e206e6f74206469737075746520757365727320776974682070726f7665604482015272642070726f6f66206f662068756d616e69747960681b60648201526084016104cd565b6040516323b872dd60e01b81523360048201523060248201527f000000000000000000000000000000000000000000000000000000000000000060448201526000907f00000000000000000000000000000000000000000000000000000000000000006001600160a01b0316906323b872dd906064016020604051808303816000875af115801561072d573d6000803e3d6000fd5b505050506040513d601f19601f820116820180604052508101906107519190612aa9565b9050806107705760405162461bcd60e51b81526004016104cd90612acb565b83156107a5576001600160a01b0385166000908152600660209081526040822060090180546001810182559083529120018490555b6001600160a01b03851660009081526006602081905260408220015460019060ff1660038111156107d8576107d8612921565b146107e45760026107e7565b60035b905060066000876001600160a01b03166001600160a01b031681526020019081526020016000206008016040518060400160405280336001600160a01b0316815260200183600381111561083d5761083d612921565b9052815460018101835560009283526020928390208251910180546001600160a01b031981166001600160a01b03909316928317825593830151929390929183916001600160a81b03191617600160a01b8360038111156108a0576108a0612921565b021790555050506108dd8660017f00000000000000000000000000000000000000000000000000000000000000006108d89190612b10565b612237565b60405133906001600160a01b038816907f952b7e5c2c7ec2cea391782e13a57e522a8e19c5b71cfa7d3c25319ae49cfa3490600090a3505050505050565b336001600160a01b037f000000000000000000000000000000000000000000000000000000000000000016148061097a5750336001600160a01b037f000000000000000000000000000000000000000000000000000000000000000016145b610a055760405162461bcd60e51b815260206004820152605060248201527f4f6e6c792063616d706169676e2063726561746f7220616e642063616d70616960448201527f676e206d616e6167657220636f6e74726163742063616e20637265617465206460648201526f756d6d79207375626d697373696f6e7360801b608482015260a4016104cd565b6001600160a01b03811660009081526006602052604090206002015415610a3e5760405162461bcd60e51b81526004016104cd90612b2f565b6005547f000000000000000000000000000000000000000000000000000000000000000011610aaf5760405162461bcd60e51b815260206004820181905260248201527f5265616368656420746865206c696d6974206f66207375626d697373696f6e7360448201526064016104cd565b610ad97f000000000000000000000000000000000000000000000000000000000000000042612b7b565b6001600160a01b038216600081815260066020819052604080832060028101959095559301805460ff19169055600580546001810182559082527f036b6384b5eca791c62761152d0c79bb0604c104a5fb6f4eb0703f3154bb3db00180546001600160a01b03191683179055915190917f7810d39a57351fd6c467ef50a5fd9c9f2cb50907503b003ccae50bc376eceb5c91a250565b6001600160a01b038116600090815260066020526040812060020154829103610baa5760405162461bcd60e51b81526004016104cd90612a72565b8160016001600160a01b0382166000908152600660208190526040909120015460ff166003811115610bde57610bde612921565b1480610c1a575060026001600160a01b0382166000908152600660208190526040909120015460ff166003811115610c1857610c18612921565b145b610c665760405162461bcd60e51b815260206004820152601b60248201527f5375626d697373696f6e206973206e6f742066696e616c697a6564000000000060448201526064016104cd565b6001600160a01b038316600090815260066020526040902060020154421015610cdd5760405162461bcd60e51b8152602060048201526024808201527f4d696e207265736f6c76652074696d657374616d70206973206e6f742072656160448201526318da195960e21b60648201526084016104cd565b60005b6001600160a01b038416600090815260066020526040902060070154811015610dc0576001600160a01b0384166000908152600660205260409020600701805482908110610d3057610d30612b8e565b600091825260209091200154600160a01b900460ff16610db85760405162461bcd60e51b815260206004820152603d60248201527f43616e207265736f6c7665207375626d697373696f6e206f6e6c79206166746560448201527f7220616c6c20726571756572656420766f74657320617265206361737400000060648201526084016104cd565b600101610ce0565b5060016001600160a01b0384166000908152600660208190526040909120015460ff166003811115610df457610df4612921565b036113a6576001600160a01b0383811660008181526006602052604080822060030154905163a9059cbb60e01b815260048101939093526024830152917f0000000000000000000000000000000000000000000000000000000000000000169063a9059cbb906044016020604051808303816000875af1158015610e7c573d6000803e3d6000fd5b505050506040513d601f19601f82011682018060405250810190610ea09190612aa9565b905080610ee05760405162461bcd60e51b815260206004820152600e60248201526d2a37b5b2b7103a3930b739b332b960911b60448201526064016104cd565b6001600160a01b038416600090815260066020526040812060030181905580805b6001600160a01b038716600090815260066020526040902060080154811015611097576001600160a01b0387166000908152600660205260408120600801805483908110610f5157610f51612b8e565b600091825260209182902060408051808201909152910180546001600160a01b03811683529192909190830190600160a01b900460ff166003811115610f9957610f99612921565b6003811115610faa57610faa612921565b9052509050600381602001516003811115610fc757610fc7612921565b03610ffd57610ff67f000000000000000000000000000000000000000000000000000000000000000085612b7b565b935061108e565b60018160200151600381111561101557611015612921565b036110805780516001600160a01b031660009081526006602052604090206003015461104390600290612bba565b81516001600160a01b031660009081526006602052604081206003018054929650600292909190611075908490612bba565b9091555061108e9050565b8261108a81612bce565b9350505b50600101610f01565b5060006110a48284612bba565b905060005b6001600160a01b03881660009081526006602052604090206008015481101561139c576001600160a01b03881660009081526006602052604081206008018054839081106110f9576110f9612b8e565b600091825260209182902060408051808201909152910180546001600160a01b03811683529192909190830190600160a01b900460ff16600381111561114157611141612921565b600381111561115257611152612921565b905250905060028160200151600381111561116f5761116f612921565b036112645780516000906001600160a01b037f0000000000000000000000000000000000000000000000000000000000000000169063a9059cbb906111d47f000000000000000000000000000000000000000000000000000000000000000088612b7b565b6040516001600160e01b031960e085901b1681526001600160a01b03909216600483015260248201526044016020604051808303816000875af115801561121f573d6000803e3d6000fd5b505050506040513d601f19601f820116820180604052508101906112439190612aa9565b9050806112625760405162461bcd60e51b81526004016104cd90612acb565b505b60008160200151600381111561127c5761127c612921565b036113935780516001600160a01b0316600090815260066020526040812060030154900361136157805160405163a9059cbb60e01b81526001600160a01b039182166004820152602481018590526000917f0000000000000000000000000000000000000000000000000000000000000000169063a9059cbb906044016020604051808303816000875af1158015611318573d6000803e3d6000fd5b505050506040513d601f19601f8201168201806040525081019061133c9190612aa9565b90508061135b5760405162461bcd60e51b81526004016104cd90612acb565b50611393565b80516001600160a01b03166000908152600660205260408120600301805485929061138d908490612b7b565b90915550505b506001016110a9565b5050505050611865565b6001600160a01b03831660009081526006602052604081206003015490805b6001600160a01b03861660009081526006602052604090206008015481101561155b576001600160a01b038616600090815260066020526040812060080180548390811061141557611415612b8e565b600091825260209182902060408051808201909152910180546001600160a01b03811683529192909190830190600160a01b900460ff16600381111561145d5761145d612921565b600381111561146e5761146e612921565b905250905060028160200151600381111561148b5761148b612921565b036114c1576114ba7f000000000000000000000000000000000000000000000000000000000000000085612b7b565b9350611552565b6000816020015160038111156114d9576114d9612921565b036115445780516001600160a01b031660009081526006602052604090206003015461150790600290612bba565b81516001600160a01b031660009081526006602052604081206003018054929650600292909190611539908490612bba565b909155506115529050565b8261154e81612bce565b9350505b506001016113c5565b5060006115688284612bba565b905060005b6001600160a01b038716600090815260066020526040902060080154811015611860576001600160a01b03871660009081526006602052604081206008018054839081106115bd576115bd612b8e565b600091825260209182902060408051808201909152910180546001600160a01b03811683529192909190830190600160a01b900460ff16600381111561160557611605612921565b600381111561161657611616612921565b905250905060038160200151600381111561163357611633612921565b036117285780516000906001600160a01b037f0000000000000000000000000000000000000000000000000000000000000000169063a9059cbb906116987f000000000000000000000000000000000000000000000000000000000000000088612b7b565b6040516001600160e01b031960e085901b1681526001600160a01b03909216600483015260248201526044016020604051808303816000875af11580156116e3573d6000803e3d6000fd5b505050506040513d601f19601f820116820180604052508101906117079190612aa9565b9050806117265760405162461bcd60e51b81526004016104cd90612acb565b505b60018160200151600381111561174057611740612921565b036118575780516001600160a01b0316600090815260066020526040812060030154900361182557805160405163a9059cbb60e01b81526001600160a01b039182166004820152602481018590526000917f0000000000000000000000000000000000000000000000000000000000000000169063a9059cbb906044016020604051808303816000875af11580156117dc573d6000803e3d6000fd5b505050506040513d601f19601f820116820180604052508101906118009190612aa9565b90508061181f5760405162461bcd60e51b81526004016104cd90612acb565b50611857565b80516001600160a01b031660009081526006602052604081206003018054859290611851908490612b7b565b90915550505b5060010161156d565b505050505b6001600160a01b0383166000818152600660208190526040808320909101805460ff19166003179055517fd7f9e268a7b73266b018e33a21334c62cd762d663acc0f052eb872992da319db9190a2505050565b7f000000000000000000000000000000000000000000000000000000000000000042116119445760405162461bcd60e51b815260206004820152603460248201527f43616d706169676e20686173206e6f7420657870697265642c20746f6b656e736044820152730818d85b881b9bdd081899481c9958dbdd5c195960621b60648201526084016104cd565b6040516370a0823160e01b81523060048201526000906001600160a01b037f0000000000000000000000000000000000000000000000000000000000000000169063a9059cbb907f00000000000000000000000000000000000000000000000000000000000000009083906370a0823190602401602060405180830381865afa1580156119d5573d6000803e3d6000fd5b505050506040513d601f19601f820116820180604052508101906119f99190612be7565b6040516001600160e01b031960e085901b1681526001600160a01b03909216600483015260248201526044016020604051808303816000875af1158015611a44573d6000803e3d6000fd5b505050506040513d601f19601f82011682018060405250810190611a689190612aa9565b905080611a875760405162461bcd60e51b81526004016104cd90612acb565b50565b60018160028110611a9a57600080fd5b60020201805460019091015490915082565b600354815110801590611ac25750600154815111155b611b195760405162461bcd60e51b815260206004820152602260248201527f4c6f636174696f6e206f757473696465206f6620617265613a206c6174697475604482015261646560f01b60648201526084016104cd565b600254602082015110801590611b355750600454602082015111155b611b8d5760405162461bcd60e51b815260206004820152602360248201527f4c6f636174696f6e206f757473696465206f6620617265613a206c6f6e67697460448201526275646560e81b60648201526084016104cd565b6005547f000000000000000000000000000000000000000000000000000000000000000011611bfe5760405162461bcd60e51b815260206004820181905260248201527f5265616368656420746865206c696d6974206f66207375626d697373696f6e7360448201526064016104cd565b3360009081526006602052604090206002015415611c2e5760405162461bcd60e51b81526004016104cd90612b2f565b6000839003611c7f5760405162461bcd60e51b815260206004820152601b60248201527f50686f746f20686173682063616e206e6f7420626520656d707479000000000060448201526064016104cd565b6000829003611cda5760405162461bcd60e51b815260206004820152602160248201527f4465736372697074696f6e20686173682063616e206e6f7420626520656d70746044820152607960f81b60648201526084016104cd565b611d04337f0000000000000000000000000000000000000000000000000000000000000000612237565b336000908152600660205260409020838155600101829055611d467f000000000000000000000000000000000000000000000000000000000000000042612b7b565b33600081815260066020818152604080842060028101969096557f00000000000000000000000000000000000000000000000000000000000000006003870155865160048701559086015160058087019190915594909101805460ff1916905583546001810185559382527f036b6384b5eca791c62761152d0c79bb0604c104a5fb6f4eb0703f3154bb3db090930180546001600160a01b03191683179055915190917f7810d39a57351fd6c467ef50a5fd9c9f2cb50907503b003ccae50bc376eceb5c91a2505050565b6001600160a01b038216600090815260066020526040812060020154839103611e4c5760405162461bcd60e51b81526004016104cd90612a72565b336000818152600660205260408120600201549003611e7d5760405162461bcd60e51b81526004016104cd90612a72565b6000836003811115611e9157611e91612921565b1480611eae57506001836003811115611eac57611eac612921565b145b611efa5760405162461bcd60e51b815260206004820152601760248201527f43616e20766f7465206f6e6c7920596573206f72204e6f00000000000000000060448201526064016104cd565b60008054905b33600090815260066020526040902060070154811015611f705733600090815260066020526040902060070180546001600160a01b038816919083908110611f4a57611f4a612b8e565b6000918252602090912001546001600160a01b031603611f68578091505b600101611f00565b506000548103611fe85760405162461bcd60e51b815260206004820152603960248201527f43616e206f6e6c7920766f7465206f6e207375626d697373696f6e732077686560448201527f72652074686520766f746520776173207265717565737465640000000000000060648201526084016104cd565b33600090815260066020526040812060070180548390811061200c5761200c612b8e565b6000918252602090912001805460ff60a01b1916600160a01b831515021790556120835760405162461bcd60e51b815260206004820152602260248201527f43616e206e6f7420766f7465207477696365206f6e2061207375626d6973736960448201526137b760f11b60648201526084016104cd565b336000908152600660205260409020600701805460019190839081106120ab576120ab612b8e565b600091825260208083209091018054931515600160a01b0260ff60a01b19909416939093179092556001600160a01b038716815260068252604090819020815180830190925233825260080191810186600381111561210c5761210c612921565b9052815460018101835560009283526020928390208251910180546001600160a01b031981166001600160a01b03909316928317825593830151929390929183916001600160a81b03191617600160a01b83600381111561216f5761216f612921565b0217905550506040513391506001600160a01b038716907fce0c7a2a940807f7dc2ce7a615c2532e915e6c0ac9a08bc4ed9d515a710a53e290600090a36001600160a01b0385166000908152600660205260409020600801546121f69060ff7f00000000000000000000000000000000000000000000000000000000000000001690612c00565b600003612206576122068561253d565b5050505050565b6005818154811061221d57600080fd5b6000918252602090912001546001600160a01b0316905081565b60055460ff821611156122d85760405162461bcd60e51b815260206004820152605a60248201527f4e6f7420656e6f756768206578697374696e67207375626d697373696f6e732060448201527f746f2061737369676e207665726966696572732c20706c65617365206372656160648201527f746520736f6d652064756d6d79207375626d697373696f6e732e000000000000608482015260a4016104cd565b60008160ff1667ffffffffffffffff8111156122f6576122f661299f565b60405190808252806020026020018201604052801561231f578160200160208202803683370190505b509050600160005b8360ff1681101561242f576005805460009182916123458643612c14565b612350919040612c00565b8154811061236057612360612b8e565b6000918252602090912001546001600160a01b03169050612382600185612b7b565b935060005b838110156123ce57816001600160a01b03168682815181106123ab576123ab612b8e565b60200260200101516001600160a01b0316036123c657600192505b600101612387565b508161240c57808584815181106123e7576123e7612b8e565b60200260200101906001600160a01b031690816001600160a01b03168152505061241a565b8261241681612c27565b9350505b5050808061242790612bce565b915050612327565b5060005b82518110156122065760006040518060400160405280876001600160a01b031681526020016000151581525090506006600085848151811061247757612477612b8e565b6020908102919091018101516001600160a01b0390811683528282019390935260409091016000908120600701805460018101825590825290829020845191018054928501511515600160a01b026001600160a81b0319909316919093161717905583518490839081106124ed576124ed612b8e565b60200260200101516001600160a01b0316866001600160a01b03167ff697f0b76868f0fc53b68a98b838d026f1dc9f318805a4daa3e27415bfec067360405160405180910390a350600101612433565b6001600160a01b03811660009081526006602052604090206008015461258660ff7f00000000000000000000000000000000000000000000000000000000000000001682612c00565b156125a35760405162461bcd60e51b81526004016104cd90612c3e565b7f000000000000000000000000000000000000000000000000000000000000000060ff168110156125e65760405162461bcd60e51b81526004016104cd90612c3e565b600160008161261860ff7f00000000000000000000000000000000000000000000000000000000000000001685612c14565b6126229190612c14565b90505b612630600184612c14565b811015612715576001600160a01b0384166000908152600660205260409020600290600801612660836001612b7b565b8154811061267057612670612b8e565b600091825260209091200154600160a01b900460ff16600381111561269757612697612921565b6126a19190612c00565b6001600160a01b0385166000908152600660205260409020600801805460029190849081106126d2576126d2612b8e565b600091825260209091200154600160a01b900460ff1660038111156126f9576126f9612921565b6127039190612c00565b1461270d57600091505b600101612625565b508015612871576001600160a01b0383166000908152600660205260409020600290600801612745600185612c14565b8154811061275557612755612b8e565b600091825260209091200154600160a01b900460ff16600381111561277c5761277c612921565b6127869190612c00565b6000036127b9576001600160a01b038316600090815260066020819052604090912001805460ff191660011790556127e1565b6001600160a01b038316600090815260066020819052604090912001805460ff191660021790555b61280b7f000000000000000000000000000000000000000000000000000000000000000042612b7b565b6001600160a01b038416600081815260066020819052604091829020600281018590550154905191927f1f2b33b77cf1d0d8cf4eef2099ee1f8193b6c30d1dba95f46b8b797b0ca1de38926128649260ff169190612c81565b60405180910390a2505050565b61289b837f0000000000000000000000000000000000000000000000000000000000000000612237565b505050565b80356001600160a01b03811681146128b757600080fd5b919050565b600080604083850312156128cf57600080fd5b6128d8836128a0565b946020939093013593505050565b6000602082840312156128f857600080fd5b612901826128a0565b9392505050565b60006020828403121561291a57600080fd5b5035919050565b634e487b7160e01b600052602160045260246000fd5b6004811061295557634e487b7160e01b600052602160045260246000fd5b9052565b600060e08201905087825286602083015285604083015284606083015283516080830152602084015160a083015261299460c0830184612937565b979650505050505050565b634e487b7160e01b600052604160045260246000fd5b600080600083850360808112156129cb57600080fd5b84359350602085013592506040603f19820112156129e857600080fd5b506040516040810181811067ffffffffffffffff82111715612a1a57634e487b7160e01b600052604160045260246000fd5b604090815285013581526060909401356020850152509093909250565b60008060408385031215612a4a57600080fd5b612a53836128a0565b9150602083013560048110612a6757600080fd5b809150509250929050565b60208082526019908201527f5375626d697373696f6e20646f6573206e6f7420657869737400000000000000604082015260600190565b600060208284031215612abb57600080fd5b8151801515811461290157600080fd5b602080825260159082015274151bdad95b881d1c985b9cd9995c8819985a5b1959605a1b604082015260600190565b634e487b7160e01b600052601160045260246000fd5b60ff8281168282160390811115612b2957612b29612afa565b92915050565b6020808252602c908201527f5375626d697373696f6e20616c726561647920637265617465642066726f6d2060408201526b74686973206164647265737360a01b606082015260800190565b80820180821115612b2957612b29612afa565b634e487b7160e01b600052603260045260246000fd5b634e487b7160e01b600052601260045260246000fd5b600082612bc957612bc9612ba4565b500490565b600060018201612be057612be0612afa565b5060010190565b600060208284031215612bf957600080fd5b5051919050565b600082612c0f57612c0f612ba4565b500690565b81810381811115612b2957612b29612afa565b600081612c3657612c36612afa565b506000190190565b60208082526023908201527f566572696669636174696f6e20726f756e64206973206e6f7420636f6d706c656040820152621d195960ea1b606082015260800190565b60408101612c8f8285612937565b826020830152939250505056fea264697066735822122012f04e05d7bcec79a7a0b398d3ad54aa6fe8c8fdd95b5b172538560fcdd4958564736f6c634300081a0033a26469706673582212206769d406e111b913a377d3902ed2f1507053ef2b4ad12977087e76133c4d940564736f6c634300081a0033","linkReferences":{}},"methodIdentifiers":{"CAMPAIGN_DURATION()":"08fd4cfa","DISPUT_DEPOSIT_AMOUNT()":"318ad9ba","campaigns(uint256)":"141961bc","createCampaign(uint256,uint256,uint256,address,(uint256,uint256),(uint256,uint256),bytes32,address,address,address)":"b606f4e8","proofOfHumanity()":"d9605867"},"id":2}